{"src_contracts/ArcVaultHook.sol":{"ArcVaultHook":{"abi":[{"inputs":[{"internalType":"contract IPoolManager","name":"_poolManager","type":"address"},{"internalType":"address","name":"_aiAgent","type":"address"}],"stateMutability":"nonpayable","type":"constructor"},{"inputs":[],"name":"HookNotImplemented","type":"error"},{"inputs":[],"name":"NotPoolManager","type":"error"},{"inputs":[],"name":"NotVIP","type":"error"},{"inputs":[],"name":"OnlyAIAgent","type":"error"},{"inputs":[{"internalType":"address","name":"sender","type":"address"},{"components":[{"internalType":"Currency","name":"currency0","type":"address"},{"internalType":"Currency","name":"currency1","type":"address"},{"internalType":"uint24","name":"fee","type":"uint24"},{"internalType":"int24","name":"tickSpacing","type":"int24"},{"internalType":"contract IHooks","name":"hooks","type":"address"}],"internalType":"struct PoolKey","name":"key","type":"tuple"},{"components":[{"internalType":"int24","name":"tickLower","type":"int24"},{"internalType":"int24","name":"tickUpper","type":"int24"},{"internalType":"int256","name":"liquidityDelta","type":"int256"},{"internalType":"bytes32","name":"salt","type":"bytes32"}],"internalType":"struct ModifyLiquidityParams","name":"params","type":"tuple"},{"internalType":"BalanceDelta","name":"delta","type":"int256"},{"internalType":"BalanceDelta","name":"feesAccrued","type":"int256"},{"internalType":"bytes","name":"hookData","type":"bytes"}],"name":"afterAddLiquidity","outputs":[{"internalType":"bytes4","name":"","type":"bytes4"},{"internalType":"BalanceDelta","name":"","type":"int256"}],"stateMutability":"nonpayable","type":"function"},{"inputs":[{"internalType":"address","name":"sender","type":"address"},{"components":[{"internalType":"Currency","name":"currency0","type":"address"},{"internalType":"Currency","name":"currency1","type":"address"},{"internalType":"uint24","name":"fee","type":"uint24"},{"internalType":"int24","name":"tickSpacing","type":"int24"},{"internalType":"contract IHooks","name":"hooks","type":"address"}],"internalType":"struct PoolKey","name":"key","type":"tuple"},{"internalType":"uint256","name":"amount0","type":"uint256"},{"internalType":"uint256","name":"amount1","type":"uint256"},{"internalType":"bytes","name":"hookData","type":"bytes"}],"name":"afterDonate","outputs":[{"internalType":"bytes4","name":"","type":"bytes4"}],"stateMutability":"nonpayable","type":"function"},{"inputs":[{"internalType":"address","name":"sender","type":"address"},{"components":[{"internalType":"Currency","name":"currency0","type":"address"},{"internalType":"Currency","name":"currency1","type":"address"},{"internalType":"uint24","name":"fee","type":"uint24"},{"internalType":"int24","name":"tickSpacing","type":"int24"},{"internalType":"contract IHooks","name":"hooks","type":"address"}],"internalType":"struct PoolKey","name":"key","type":"tuple"},{"internalType":"uint160","name":"sqrtPriceX96","type":"uint160"},{"internalType":"int24","name":"tick","type":"int24"}],"name":"afterInitialize","outputs":[{"internalType":"bytes4","name":"","type":"bytes4"}],"stateMutability":"nonpayable","type":"function"},{"inputs":[{"internalType":"address","name":"sender","type":"address"},{"components":[{"internalType":"Currency","name":"currency0","type":"address"},{"internalType":"Currency","name":"currency1","type":"address"},{"internalType":"uint24","name":"fee","type":"uint24"},{"internalType":"int24","name":"tickSpacing","type":"int24"},{"internalType":"contract IHooks","name":"hooks","type":"address"}],"internalType":"struct PoolKey","name":"key","type":"tuple"},{"components":[{"internalType":"int24","name":"tickLower","type":"int24"},{"internalType":"int24","name":"tickUpper","type":"int24"},{"internalType":"int256","name":"liquidityDelta","type":"int256"},{"internalType":"bytes32","name":"salt","type":"bytes32"}],"internalType":"struct ModifyLiquidityParams","name":"params","type":"tuple"},{"internalType":"BalanceDelta","name":"delta","type":"int256"},{"internalType":"BalanceDelta","name":"feesAccrued","type":"int256"},{"internalType":"bytes","name":"hookData","type":"bytes"}],"name":"afterRemoveLiquidity","outputs":[{"internalType":"bytes4","name":"","type":"bytes4"},{"internalType":"BalanceDelta","name":"","type":"int256"}],"stateMutability":"nonpayable","type":"function"},{"inputs":[{"internalType":"address","name":"sender","type":"address"},{"components":[{"internalType":"Currency","name":"currency0","type":"address"},{"internalType":"Currency","name":"currency1","type":"address"},{"internalType":"uint24","name":"fee","type":"uint24"},{"internalType":"int24","name":"tickSpacing","type":"int24"},{"internalType":"contract IHooks","name":"hooks","type":"address"}],"internalType":"struct PoolKey","name":"key","type":"tuple"},{"components":[{"internalType":"bool","name":"zeroForOne","type":"bool"},{"internalType":"int256","name":"amountSpecified","type":"int256"},{"internalType":"uint160","name":"sqrtPriceLimitX96","type":"uint160"}],"internalType":"struct SwapParams","name":"params","type":"tuple"},{"internalType":"BalanceDelta","name":"delta","type":"int256"},{"internalType":"bytes","name":"hookData","type":"bytes"}],"name":"afterSwap","outputs":[{"internalType":"bytes4","name":"","type":"bytes4"},{"internalType":"int128","name":"","type":"int128"}],"stateMutability":"nonpayable","type":"function"},{"inputs":[],"name":"aiAgent","outputs":[{"internalType":"address","name":"","type":"address"}],"stateMutability":"view","type":"function"},{"inputs":[],"name":"baseFee","outputs":[{"internalType":"uint24","name":"","type":"uint24"}],"stateMutability":"view","type":"function"},{"inputs":[{"internalType":"address","name":"sender","type":"address"},{"components":[{"internalType":"Currency","name":"currency0","type":"address"},{"internalType":"Currency","name":"currency1","type":"address"},{"internalType":"uint24","name":"fee","type":"uint24"},{"internalType":"int24","name":"tickSpacing","type":"int24"},{"internalType":"contract IHooks","name":"hooks","type":"address"}],"internalType":"struct PoolKey","name":"key","type":"tuple"},{"components":[{"internalType":"int24","name":"tickLower","type":"int24"},{"internalType":"int24","name":"tickUpper","type":"int24"},{"internalType":"int256","name":"liquidityDelta","type":"int256"},{"internalType":"bytes32","name":"salt","type":"bytes32"}],"internalType":"struct ModifyLiquidityParams","name":"params","type":"tuple"},{"internalType":"bytes","name":"hookData","type":"bytes"}],"name":"beforeAddLiquidity","outputs":[{"internalType":"bytes4","name":"","type":"bytes4"}],"stateMutability":"nonpayable","type":"function"},{"inputs":[{"internalType":"address","name":"sender","type":"address"},{"components":[{"internalType":"Currency","name":"currency0","type":"address"},{"internalType":"Currency","name":"currency1","type":"address"},{"internalType":"uint24","name":"fee","type":"uint24"},{"internalType":"int24","name":"tickSpacing","type":"int24"},{"internalType":"contract IHooks","name":"hooks","type":"address"}],"internalType":"struct PoolKey","name":"key","type":"tuple"},{"internalType":"uint256","name":"amount0","type":"uint256"},{"internalType":"uint256","name":"amount1","type":"uint256"},{"internalType":"bytes","name":"hookData","type":"bytes"}],"name":"beforeDonate","outputs":[{"internalType":"bytes4","name":"","type":"bytes4"}],"stateMutability":"nonpayable","type":"function"},{"inputs":[{"internalType":"address","name":"sender","type":"address"},{"components":[{"internalType":"Currency","name":"currency0","type":"address"},{"internalType":"Currency","name":"currency1","type":"address"},{"internalType":"uint24","name":"fee","type":"uint24"},{"internalType":"int24","name":"tickSpacing","type":"int24"},{"internalType":"contract IHooks","name":"hooks","type":"address"}],"internalType":"struct PoolKey","name":"key","type":"tuple"},{"internalType":"uint160","name":"sqrtPriceX96","type":"uint160"}],"name":"beforeInitialize","outputs":[{"internalType":"bytes4","name":"","type":"bytes4"}],"stateMutability":"nonpayable","type":"function"},{"inputs":[{"internalType":"address","name":"sender","type":"address"},{"components":[{"internalType":"Currency","name":"currency0","type":"address"},{"internalType":"Currency","name":"currency1","type":"address"},{"internalType":"uint24","name":"fee","type":"uint24"},{"internalType":"int24","name":"tickSpacing","type":"int24"},{"internalType":"contract IHooks","name":"hooks","type":"address"}],"internalType":"struct PoolKey","name":"key","type":"tuple"},{"components":[{"internalType":"int24","name":"tickLower","type":"int24"},{"internalType":"int24","name":"tickUpper","type":"int24"},{"internalType":"int256","name":"liquidityDelta","type":"int256"},{"internalType":"bytes32","name":"salt","type":"bytes32"}],"internalType":"struct ModifyLiquidityParams","name":"params","type":"tuple"},{"internalType":"bytes","name":"hookData","type":"bytes"}],"name":"beforeRemoveLiquidity","outputs":[{"internalType":"bytes4","name":"","type":"bytes4"}],"stateMutability":"nonpayable","type":"function"},{"inputs":[{"internalType":"address","name":"sender","type":"address"},{"components":[{"internalType":"Currency","name":"currency0","type":"address"},{"internalType":"Currency","name":"currency1","type":"address"},{"internalType":"uint24","name":"fee","type":"uint24"},{"internalType":"int24","name":"tickSpacing","type":"int24"},{"internalType":"contract IHooks","name":"hooks","type":"address"}],"internalType":"struct PoolKey","name":"key","type":"tuple"},{"components":[{"internalType":"bool","name":"zeroForOne","type":"bool"},{"internalType":"int256","name":"amountSpecified","type":"int256"},{"internalType":"uint160","name":"sqrtPriceLimitX96","type":"uint160"}],"internalType":"struct SwapParams","name":"params","type":"tuple"},{"internalType":"bytes","name":"hookData","type":"bytes"}],"name":"beforeSwap","outputs":[{"internalType":"bytes4","name":"","type":"bytes4"},{"internalType":"BeforeSwapDelta","name":"","type":"int256"},{"internalType":"uint24","name":"","type":"uint24"}],"stateMutability":"nonpayable","type":"function"},{"inputs":[{"components":[{"internalType":"Currency","name":"currency0","type":"address"},{"internalType":"Currency","name":"currency1","type":"address"},{"internalType":"uint24","name":"fee","type":"uint24"},{"internalType":"int24","name":"tickSpacing","type":"int24"},{"internalType":"contract IHooks","name":"hooks","type":"address"}],"internalType":"struct PoolKey","name":"key","type":"tuple"},{"internalType":"int256","name":"amountToRebalance","type":"int256"}],"name":"executeAIRebalance","outputs":[],"stateMutability":"nonpayable","type":"function"},{"inputs":[],"name":"getHookPermissions","outputs":[{"components":[{"internalType":"bool","name":"beforeInitialize","type":"bool"},{"internalType":"bool","name":"afterInitialize","type":"bool"},{"internalType":"bool","name":"beforeAddLiquidity","type":"bool"},{"internalType":"bool","name":"afterAddLiquidity","type":"bool"},{"internalType":"bool","name":"beforeRemoveLiquidity","type":"bool"},{"internalType":"bool","name":"afterRemoveLiquidity","type":"bool"},{"internalType":"bool","name":"beforeSwap","type":"bool"},{"internalType":"bool","name":"afterSwap","type":"bool"},{"internalType":"bool","name":"beforeDonate","type":"bool"},{"internalType":"bool","name":"afterDonate","type":"bool"},{"internalType":"bool","name":"beforeSwapReturnDelta","type":"bool"},{"internalType":"bool","name":"afterSwapReturnDelta","type":"bool"},{"internalType":"bool","name":"afterAddLiquidityReturnDelta","type":"bool"},{"internalType":"bool","name":"afterRemoveLiquidityReturnDelta","type":"bool"}],"internalType":"struct Hooks.Permissions","name":"","type":"tuple"}],"stateMutability":"pure","type":"function"},{"inputs":[{"internalType":"address","name":"","type":"address"}],"name":"isVIP","outputs":[{"internalType":"bool","name":"","type":"bool"}],"stateMutability":"view","type":"function"},{"inputs":[],"name":"lastRebalanceTime","outputs":[{"internalType":"uint256","name":"","type":"uint256"}],"stateMutability":"view","type":"function"},{"inputs":[],"name":"poolManager","outputs":[{"internalType":"contract IPoolManager","name":"","type":"address"}],"stateMutability":"view","type":"function"},{"inputs":[{"internalType":"address","name":"user","type":"address"},{"internalType":"bool","name":"status","type":"bool"}],"name":"setVIPStatus","outputs":[],"stateMutability":"nonpayable","type":"function"},{"inputs":[{"components":[{"internalType":"Currency","name":"currency0","type":"address"},{"internalType":"Currency","name":"currency1","type":"address"},{"internalType":"uint24","name":"fee","type":"uint24"},{"internalType":"int24","name":"tickSpacing","type":"int24"},{"internalType":"contract IHooks","name":"hooks","type":"address"}],"internalType":"struct PoolKey","name":"key","type":"tuple"},{"internalType":"uint256","name":"newVol","type":"uint256"}],"name":"updateVolatility","outputs":[],"stateMutability":"nonpayable","type":"function"},{"inputs":[{"internalType":"PoolId","name":"","type":"bytes32"}],"name":"volatilityIndex","outputs":[{"internalType":"uint256","name":"","type":"uint256"}],"stateMutability":"view","type":"function"}],"evm":{"bytecode":{"linkReferences":{},"object":"60a034620002d85762000e8a90601f38839003908101601f19168201906001600160401b03821183831017620002dd5780839160409586948552833981010312620002d8578051906001600160a01b03908183168303620002d85760200151908116809103620002d857829160805262000078620002f3565b60009081815281602082015281848201528160608201528160808201528160a08201528160c08201528160e082015281610100918183820152610120828183015282610140818185015281610160818187015281610180938185890152816101a08099015281620000e8620002f3565b978189528160208a015260019e8f80918b01528260608b01528260808b01528260a08b015260c08a01528160e08a0152818c8a0152880152860152840152820152015261200030161590811591620002c9575b8115620002b7575b8115620002a8575b811562000299575b81156200028c575b5080156200027c575b801562000270575b801562000263575b801562000256575b801562000249575b80156200023c575b80156200022f575b801562000223575b6200021057506003805462ffffff1916610bb817905581546001600160a01b03191617905551610b759081620003158239608051818181610154015281816101d6015281816102290152818161045e0152818161056e015281816106180152818161071801528181610897015261091a0152f35b630732d7b560e51b815230600452602490fd5b5082301615156200019c565b5060023016151562000194565b506004301615156200018c565b5060083016151562000184565b506010301615156200017c565b5060203016151562000174565b5083301615156200016c565b5060803016151583141562000164565b905030161515386200015b565b30610200161515915062000153565b3061040016151591506200014b565b30610800161515851415915062000143565b3061100016151591506200013b565b600080fd5b634e487b7160e01b600052604160045260246000fd5b604051906101c082016001600160401b03811183821017620002dd5760405256fe60808060405260048036101561001457600080fd5b60003560e01c91826321d0ee701461090757508163259982e5146108795781633340a4331461082b578163575e24b4146106b857816367463fdd146106785781636c2bbe7e1461055b5781636ef25c3a146106555781636fe7e6eb146105da57816393989711146105b15781639f063efc1461055b578163a2b732b5146104c4578163a6d5b7321461049b578163b47b2fb114610407578163b6a8b0fa14610141578163c4e833ce14610276578163d9ca21d514610258578163dc4c90d314610213578163dc98354e146101a5578163e1b4af6914610141575063f4201c3c146100fd57600080fd5b3461013c57602036600319011261013c576001600160a01b0361011e610968565b166000526000602052602060ff604060002054166040519015158152f35b600080fd5b3461013c5761014f36610a90565b5050507f00000000000000000000000000000000000000000000000000000000000000006001600160a01b03163303925061019691505057604051630a85dc2960e01b8152fd5b60405163570c108560e11b8152fd5b3461013c5760e036600319011261013c576101be610968565b5060a036602319011261013c576101d3610a7a565b507f00000000000000000000000000000000000000000000000000000000000000006001600160a01b0316330361019657604051630a85dc2960e01b8152fd5b3461013c57600036600319011261013c576040517f00000000000000000000000000000000000000000000000000000000000000006001600160a01b03168152602090f35b3461013c57600036600319011261013c576020600254604051908152f35b3461013c57600036600319011261013c5760006101a0610294610ae8565b8281528260208201528260408201528260608201528260808201528260a08201528260c08201528260e0820152826101008201528261012082015282610140820152826101608201528261018082015201526101c06102f1610ae8565b6000815260006020820152600160408201526000606082015260006080820152600060a0820152600160c0820152600060e08201526000610100820152600061012082015260006101408201526000610160820152600061018082015260006101a08201526101a0604051916000835260208101511515602084015260408101511515604084015260608101511515606084015260808101511515608084015260a0810151151560a084015260c0810151151560c084015260e0810151151560e084015261010081015115156101008401526101208101511515610120840152610140810151151561014084015261016081015115156101608401526101808101511515610180840152015115156101a0820152f35b3461013c5761016036600319011261013c57610421610968565b5060a036602319011261013c5760603660c319011261013c576101443567ffffffffffffffff811161013c5761045a903690830161097e565b50507f00000000000000000000000000000000000000000000000000000000000000006001600160a01b0316330361019657604051630a85dc2960e01b8152fd5b3461013c57600036600319011261013c576001546040516001600160a01b039091168152602090f35b3461013c57366003190160c0811261013c5760a01361013c576104e5610b1f565b6001600160a01b03908235828116810361013c578152602435828116810361013c57602082015260443562ffffff8116810361013c5760408201526064358060020b810361013c576060820152608435918216820361013c5760a09160808201522060005260205260a435604060002055600080f35b3461013c5761056936610a10565b5050507f00000000000000000000000000000000000000000000000000000000000000006001600160a01b0316330393506101969250505057604051630a85dc2960e01b8152fd5b3461013c57602036600319011261013c5780356000526020526020604060002054604051908152f35b3461013c5761010036600319011261013c576105f4610968565b5060a036602319011261013c57610609610a7a565b5060e4358060020b0361013c577f00000000000000000000000000000000000000000000000000000000000000006001600160a01b0316330361019657604051630a85dc2960e01b8152fd5b3461013c57600036600319011261013c57602062ffffff60035416604051908152f35b3461013c57366003190160c0811261013c5760a01361013c576001546001600160a01b031633036106a95742600255005b604051631118a5c160e01b8152fd5b3461013c5761014036600319011261013c576106d2610968565b5060a036602319011261013c5760603660c319011261013c576101243567ffffffffffffffff811161013c5761070b903690830161097e565b506001600160a01b0390507f00000000000000000000000000000000000000000000000000000000000000008116330361081b57610747610b1f565b90602435818116810361013c578252604435818116810361013c57602083015262ffffff91606435838116810361013c5760408201526084358060020b810361013c57606082015260a435918216820361013c5760a09160808201522060005281602052604060002054816003541690600a810290808204600a149015171561080657821601116107f15760606040516315d7892d60e21b81526000602082015260006040820152f35b601190634e487b7160e01b6000525260246000fd5b601184634e487b7160e01b6000525260246000fd5b5060405163570c108560e11b8152fd5b3461013c57604036600319011261013c57610844610968565b6024359081151580920361013c5760018060a01b0316600052600060205260406000209060ff80198354169116179055600080f35b3461013c57610887366109ac565b506001600160a01b0393925050507f0000000000000000000000000000000000000000000000000000000000000000821633036108f65716600052600060205260ff60406000205416156108e75760405163259982e560e01b8152602090f35b604051631fcdf12d60e21b8152fd5b60405163570c108560e11b81528390fd5b3461013c57610915366109ac565b5050507f00000000000000000000000000000000000000000000000000000000000000006001600160a01b03163303915061095c90505750604051630a85dc2960e01b8152fd5b63570c108560e11b8152fd5b600435906001600160a01b038216820361013c57565b9181601f8401121561013c5782359167ffffffffffffffff831161013c576020838186019501011161013c57565b9061016060031983011261013c576004356001600160a01b038116810361013c579160a060231982011261013c57602491608060c31983011261013c5760c491610144359067ffffffffffffffff821161013c57610a0c9160040161097e565b9091565b906101a060031983011261013c576004356001600160a01b038116810361013c579160a060231982011261013c57602491608060c31983011261013c5760c49161014435916101643591610184359067ffffffffffffffff821161013c57610a0c9160040161097e565b60c435906001600160a01b038216820361013c57565b61012060031982011261013c576004356001600160a01b038116810361013c579160a060231983011261013c5760249160c4359160e43591610104359067ffffffffffffffff821161013c57610a0c9160040161097e565b604051906101c0820182811067ffffffffffffffff821117610b0957604052565b634e487b7160e01b600052604160045260246000fd5b6040519060a0820182811067ffffffffffffffff821117610b095760405256fea264697066735822122081aa7b98da8b37b012fcb9d89bc0f633b5e5290a3f2ee2e5b4067c130f15bb7864736f6c63430008180033","opcodes":"PUSH1 0xA0 CALLVALUE PUSH3 0x2D8 JUMPI PUSH3 0xE8A SWAP1 PUSH1 0x1F CODESIZE DUP4 SWAP1 SUB SWAP1 DUP2 ADD PUSH1 0x1F NOT AND DUP3 ADD SWAP1 PUSH1 0x1 PUSH1 0x1 PUSH1 0x40 SHL SUB DUP3 GT DUP4 DUP4 LT OR PUSH3 0x2DD JUMPI DUP1 DUP4 SWAP2 PUSH1 0x40 SWAP6 DUP7 SWAP5 DUP6 MSTORE DUP4 CODECOPY DUP2 ADD SUB SLT PUSH3 0x2D8 JUMPI DUP1 MLOAD SWAP1 PUSH1 0x1 PUSH1 0x1 PUSH1 0xA0 SHL SUB SWAP1 DUP2 DUP4 AND DUP4 SUB PUSH3 0x2D8 JUMPI PUSH1 0x20 ADD MLOAD SWAP1 DUP2 AND DUP1 SWAP2 SUB PUSH3 0x2D8 JUMPI DUP3 SWAP2 PUSH1 0x80 MSTORE PUSH3 0x78 PUSH3 0x2F3 JUMP JUMPDEST PUSH1 0x0 SWAP1 DUP2 DUP2 MSTORE DUP2 PUSH1 0x20 DUP3 ADD MSTORE DUP2 DUP5 DUP3 ADD MSTORE DUP2 PUSH1 0x60 DUP3 ADD MSTORE DUP2 PUSH1 0x80 DUP3 ADD MSTORE DUP2 PUSH1 0xA0 DUP3 ADD MSTORE DUP2 PUSH1 0xC0 DUP3 ADD MSTORE DUP2 PUSH1 0xE0 DUP3 ADD MSTORE DUP2 PUSH2 0x100 SWAP2 DUP2 DUP4 DUP3 ADD MSTORE PUSH2 0x120 DUP3 DUP2 DUP4 ADD MSTORE DUP3 PUSH2 0x140 DUP2 DUP2 DUP6 ADD MSTORE DUP2 PUSH2 0x160 DUP2 DUP2 DUP8 ADD MSTORE DUP2 PUSH2 0x180 SWAP4 DUP2 DUP6 DUP10 ADD MSTORE DUP2 PUSH2 0x1A0 DUP1 SWAP10 ADD MSTORE DUP2 PUSH3 0xE8 PUSH3 0x2F3 JUMP JUMPDEST SWAP8 DUP2 DUP10 MSTORE DUP2 PUSH1 0x20 DUP11 ADD MSTORE PUSH1 0x1 SWAP15 DUP16 DUP1 SWAP2 DUP12 ADD MSTORE DUP3 PUSH1 0x60 DUP12 ADD MSTORE DUP3 PUSH1 0x80 DUP12 ADD MSTORE DUP3 PUSH1 0xA0 DUP12 ADD MSTORE PUSH1 0xC0 DUP11 ADD MSTORE DUP2 PUSH1 0xE0 DUP11 ADD MSTORE DUP2 DUP13 DUP11 ADD MSTORE DUP9 ADD MSTORE DUP7 ADD MSTORE DUP5 ADD MSTORE DUP3 ADD MSTORE ADD MSTORE PUSH2 0x2000 ADDRESS AND ISZERO SWAP1 DUP2 ISZERO SWAP2 PUSH3 0x2C9 JUMPI JUMPDEST DUP2 ISZERO PUSH3 0x2B7 JUMPI JUMPDEST DUP2 ISZERO PUSH3 0x2A8 JUMPI JUMPDEST DUP2 ISZERO PUSH3 0x299 JUMPI JUMPDEST DUP2 ISZERO PUSH3 0x28C JUMPI JUMPDEST POP DUP1 ISZERO PUSH3 0x27C JUMPI JUMPDEST DUP1 ISZERO PUSH3 0x270 JUMPI JUMPDEST DUP1 ISZERO PUSH3 0x263 JUMPI JUMPDEST DUP1 ISZERO PUSH3 0x256 JUMPI JUMPDEST DUP1 ISZERO PUSH3 0x249 JUMPI JUMPDEST DUP1 ISZERO PUSH3 0x23C JUMPI JUMPDEST DUP1 ISZERO PUSH3 0x22F JUMPI JUMPDEST DUP1 ISZERO PUSH3 0x223 JUMPI JUMPDEST PUSH3 0x210 JUMPI POP PUSH1 0x3 DUP1 SLOAD PUSH3 0xFFFFFF NOT AND PUSH2 0xBB8 OR SWAP1 SSTORE DUP2 SLOAD PUSH1 0x1 PUSH1 0x1 PUSH1 0xA0 SHL SUB NOT AND OR SWAP1 SSTORE MLOAD PUSH2 0xB75 SWAP1 DUP2 PUSH3 0x315 DUP3 CODECOPY PUSH1 0x80 MLOAD DUP2 DUP2 DUP2 PUSH2 0x154 ADD MSTORE DUP2 DUP2 PUSH2 0x1D6 ADD MSTORE DUP2 DUP2 PUSH2 0x229 ADD MSTORE DUP2 DUP2 PUSH2 0x45E ADD MSTORE DUP2 DUP2 PUSH2 0x56E ADD MSTORE DUP2 DUP2 PUSH2 0x618 ADD MSTORE DUP2 DUP2 PUSH2 0x718 ADD MSTORE DUP2 DUP2 PUSH2 0x897 ADD MSTORE PUSH2 0x91A ADD MSTORE RETURN JUMPDEST PUSH4 0x732D7B5 PUSH1 0xE5 SHL DUP2 MSTORE ADDRESS PUSH1 0x4 MSTORE PUSH1 0x24 SWAP1 REVERT JUMPDEST POP DUP3 ADDRESS AND ISZERO ISZERO PUSH3 0x19C JUMP JUMPDEST POP PUSH1 0x2 ADDRESS AND ISZERO ISZERO PUSH3 0x194 JUMP JUMPDEST POP PUSH1 0x4 ADDRESS AND ISZERO ISZERO PUSH3 0x18C JUMP JUMPDEST POP PUSH1 0x8 ADDRESS AND ISZERO ISZERO PUSH3 0x184 JUMP JUMPDEST POP PUSH1 0x10 ADDRESS AND ISZERO ISZERO PUSH3 0x17C JUMP JUMPDEST POP PUSH1 0x20 ADDRESS AND ISZERO ISZERO PUSH3 0x174 JUMP JUMPDEST POP DUP4 ADDRESS AND ISZERO ISZERO PUSH3 0x16C JUMP JUMPDEST POP PUSH1 0x80 ADDRESS AND ISZERO ISZERO DUP4 EQ ISZERO PUSH3 0x164 JUMP JUMPDEST SWAP1 POP ADDRESS AND ISZERO ISZERO CODESIZE PUSH3 0x15B JUMP JUMPDEST ADDRESS PUSH2 0x200 AND ISZERO ISZERO SWAP2 POP PUSH3 0x153 JUMP JUMPDEST ADDRESS PUSH2 0x400 AND ISZERO ISZERO SWAP2 POP PUSH3 0x14B JUMP JUMPDEST ADDRESS PUSH2 0x800 AND ISZERO ISZERO DUP6 EQ ISZERO SWAP2 POP PUSH3 0x143 JUMP JUMPDEST ADDRESS PUSH2 0x1000 AND ISZERO ISZERO SWAP2 POP PUSH3 0x13B JUMP JUMPDEST PUSH1 0x0 DUP1 REVERT JUMPDEST PUSH4 0x4E487B71 PUSH1 0xE0 SHL PUSH1 0x0 MSTORE PUSH1 0x41 PUSH1 0x4 MSTORE PUSH1 0x24 PUSH1 0x0 REVERT JUMPDEST PUSH1 0x40 MLOAD SWAP1 PUSH2 0x1C0 DUP3 ADD PUSH1 0x1 PUSH1 0x1 PUSH1 0x40 SHL SUB DUP2 GT DUP4 DUP3 LT OR PUSH3 0x2DD JUMPI PUSH1 0x40 MSTORE JUMP INVALID PUSH1 0x80 DUP1 PUSH1 0x40 MSTORE PUSH1 0x4 DUP1 CALLDATASIZE LT ISZERO PUSH2 0x14 JUMPI PUSH1 0x0 DUP1 REVERT JUMPDEST PUSH1 0x0 CALLDATALOAD PUSH1 0xE0 SHR SWAP2 DUP3 PUSH4 0x21D0EE70 EQ PUSH2 0x907 JUMPI POP DUP2 PUSH4 0x259982E5 EQ PUSH2 0x879 JUMPI DUP2 PUSH4 0x3340A433 EQ PUSH2 0x82B JUMPI DUP2 PUSH4 0x575E24B4 EQ PUSH2 0x6B8 JUMPI DUP2 PUSH4 0x67463FDD EQ PUSH2 0x678 JUMPI DUP2 PUSH4 0x6C2BBE7E EQ PUSH2 0x55B JUMPI DUP2 PUSH4 0x6EF25C3A EQ PUSH2 0x655 JUMPI DUP2 PUSH4 0x6FE7E6EB EQ PUSH2 0x5DA JUMPI DUP2 PUSH4 0x93989711 EQ PUSH2 0x5B1 JUMPI DUP2 PUSH4 0x9F063EFC EQ PUSH2 0x55B JUMPI DUP2 PUSH4 0xA2B732B5 EQ PUSH2 0x4C4 JUMPI DUP2 PUSH4 0xA6D5B732 EQ PUSH2 0x49B JUMPI DUP2 PUSH4 0xB47B2FB1 EQ PUSH2 0x407 JUMPI DUP2 PUSH4 0xB6A8B0FA EQ PUSH2 0x141 JUMPI DUP2 PUSH4 0xC4E833CE EQ PUSH2 0x276 JUMPI DUP2 PUSH4 0xD9CA21D5 EQ PUSH2 0x258 JUMPI DUP2 PUSH4 0xDC4C90D3 EQ PUSH2 0x213 JUMPI DUP2 PUSH4 0xDC98354E EQ PUSH2 0x1A5 JUMPI DUP2 PUSH4 0xE1B4AF69 EQ PUSH2 0x141 JUMPI POP PUSH4 0xF4201C3C EQ PUSH2 0xFD JUMPI PUSH1 0x0 DUP1 REVERT JUMPDEST CALLVALUE PUSH2 0x13C JUMPI PUSH1 0x20 CALLDATASIZE PUSH1 0x3 NOT ADD SLT PUSH2 0x13C JUMPI PUSH1 0x1 PUSH1 0x1 PUSH1 0xA0 SHL SUB PUSH2 0x11E PUSH2 0x968 JUMP JUMPDEST AND PUSH1 0x0 MSTORE PUSH1 0x0 PUSH1 0x20 MSTORE PUSH1 0x20 PUSH1 0xFF PUSH1 0x40 PUSH1 0x0 KECCAK256 SLOAD AND PUSH1 0x40 MLOAD SWAP1 ISZERO ISZERO DUP2 MSTORE RETURN JUMPDEST PUSH1 0x0 DUP1 REVERT JUMPDEST CALLVALUE PUSH2 0x13C JUMPI PUSH2 0x14F CALLDATASIZE PUSH2 0xA90 JUMP JUMPDEST POP POP POP PUSH32 0x0 PUSH1 0x1 PUSH1 0x1 PUSH1 0xA0 SHL SUB AND CALLER SUB SWAP3 POP PUSH2 0x196 SWAP2 POP POP JUMPI PUSH1 0x40 MLOAD PUSH4 0xA85DC29 PUSH1 0xE0 SHL DUP2 MSTORE REVERT JUMPDEST PUSH1 0x40 MLOAD PUSH4 0x570C1085 PUSH1 0xE1 SHL DUP2 MSTORE REVERT JUMPDEST CALLVALUE PUSH2 0x13C JUMPI PUSH1 0xE0 CALLDATASIZE PUSH1 0x3 NOT ADD SLT PUSH2 0x13C JUMPI PUSH2 0x1BE PUSH2 0x968 JUMP JUMPDEST POP PUSH1 0xA0 CALLDATASIZE PUSH1 0x23 NOT ADD SLT PUSH2 0x13C JUMPI PUSH2 0x1D3 PUSH2 0xA7A JUMP JUMPDEST POP PUSH32 0x0 PUSH1 0x1 PUSH1 0x1 PUSH1 0xA0 SHL SUB AND CALLER SUB PUSH2 0x196 JUMPI PUSH1 0x40 MLOAD PUSH4 0xA85DC29 PUSH1 0xE0 SHL DUP2 MSTORE REVERT JUMPDEST CALLVALUE PUSH2 0x13C JUMPI PUSH1 0x0 CALLDATASIZE PUSH1 0x3 NOT ADD SLT PUSH2 0x13C JUMPI PUSH1 0x40 MLOAD PUSH32 0x0 PUSH1 0x1 PUSH1 0x1 PUSH1 0xA0 SHL SUB AND DUP2 MSTORE PUSH1 0x20 SWAP1 RETURN JUMPDEST CALLVALUE PUSH2 0x13C JUMPI PUSH1 0x0 CALLDATASIZE PUSH1 0x3 NOT ADD SLT PUSH2 0x13C JUMPI PUSH1 0x20 PUSH1 0x2 SLOAD PUSH1 0x40 MLOAD SWAP1 DUP2 MSTORE RETURN JUMPDEST CALLVALUE PUSH2 0x13C JUMPI PUSH1 0x0 CALLDATASIZE PUSH1 0x3 NOT ADD SLT PUSH2 0x13C JUMPI PUSH1 0x0 PUSH2 0x1A0 PUSH2 0x294 PUSH2 0xAE8 JUMP JUMPDEST DUP3 DUP2 MSTORE DUP3 PUSH1 0x20 DUP3 ADD MSTORE DUP3 PUSH1 0x40 DUP3 ADD MSTORE DUP3 PUSH1 0x60 DUP3 ADD MSTORE DUP3 PUSH1 0x80 DUP3 ADD MSTORE DUP3 PUSH1 0xA0 DUP3 ADD MSTORE DUP3 PUSH1 0xC0 DUP3 ADD MSTORE DUP3 PUSH1 0xE0 DUP3 ADD MSTORE DUP3 PUSH2 0x100 DUP3 ADD MSTORE DUP3 PUSH2 0x120 DUP3 ADD MSTORE DUP3 PUSH2 0x140 DUP3 ADD MSTORE DUP3 PUSH2 0x160 DUP3 ADD MSTORE DUP3 PUSH2 0x180 DUP3 ADD MSTORE ADD MSTORE PUSH2 0x1C0 PUSH2 0x2F1 PUSH2 0xAE8 JUMP JUMPDEST PUSH1 0x0 DUP2 MSTORE PUSH1 0x0 PUSH1 0x20 DUP3 ADD MSTORE PUSH1 0x1 PUSH1 0x40 DUP3 ADD MSTORE PUSH1 0x0 PUSH1 0x60 DUP3 ADD MSTORE PUSH1 0x0 PUSH1 0x80 DUP3 ADD MSTORE PUSH1 0x0 PUSH1 0xA0 DUP3 ADD MSTORE PUSH1 0x1 PUSH1 0xC0 DUP3 ADD MSTORE PUSH1 0x0 PUSH1 0xE0 DUP3 ADD MSTORE PUSH1 0x0 PUSH2 0x100 DUP3 ADD MSTORE PUSH1 0x0 PUSH2 0x120 DUP3 ADD MSTORE PUSH1 0x0 PUSH2 0x140 DUP3 ADD MSTORE PUSH1 0x0 PUSH2 0x160 DUP3 ADD MSTORE PUSH1 0x0 PUSH2 0x180 DUP3 ADD MSTORE PUSH1 0x0 PUSH2 0x1A0 DUP3 ADD MSTORE PUSH2 0x1A0 PUSH1 0x40 MLOAD SWAP2 PUSH1 0x0 DUP4 MSTORE PUSH1 0x20 DUP2 ADD MLOAD ISZERO ISZERO PUSH1 0x20 DUP5 ADD MSTORE PUSH1 0x40 DUP2 ADD MLOAD ISZERO ISZERO PUSH1 0x40 DUP5 ADD MSTORE PUSH1 0x60 DUP2 ADD MLOAD ISZERO ISZERO PUSH1 0x60 DUP5 ADD MSTORE PUSH1 0x80 DUP2 ADD MLOAD ISZERO ISZERO PUSH1 0x80 DUP5 ADD MSTORE PUSH1 0xA0 DUP2 ADD MLOAD ISZERO ISZERO PUSH1 0xA0 DUP5 ADD MSTORE PUSH1 0xC0 DUP2 ADD MLOAD ISZERO ISZERO PUSH1 0xC0 DUP5 ADD MSTORE PUSH1 0xE0 DUP2 ADD MLOAD ISZERO ISZERO PUSH1 0xE0 DUP5 ADD MSTORE PUSH2 0x100 DUP2 ADD MLOAD ISZERO ISZERO PUSH2 0x100 DUP5 ADD MSTORE PUSH2 0x120 DUP2 ADD MLOAD ISZERO ISZERO PUSH2 0x120 DUP5 ADD MSTORE PUSH2 0x140 DUP2 ADD MLOAD ISZERO ISZERO PUSH2 0x140 DUP5 ADD MSTORE PUSH2 0x160 DUP2 ADD MLOAD ISZERO ISZERO PUSH2 0x160 DUP5 ADD MSTORE PUSH2 0x180 DUP2 ADD MLOAD ISZERO ISZERO PUSH2 0x180 DUP5 ADD MSTORE ADD MLOAD ISZERO ISZERO PUSH2 0x1A0 DUP3 ADD MSTORE RETURN JUMPDEST CALLVALUE PUSH2 0x13C JUMPI PUSH2 0x160 CALLDATASIZE PUSH1 0x3 NOT ADD SLT PUSH2 0x13C JUMPI PUSH2 0x421 PUSH2 0x968 JUMP JUMPDEST POP PUSH1 0xA0 CALLDATASIZE PUSH1 0x23 NOT ADD SLT PUSH2 0x13C JUMPI PUSH1 0x60 CALLDATASIZE PUSH1 0xC3 NOT ADD SLT PUSH2 0x13C JUMPI PUSH2 0x144 CALLDATALOAD PUSH8 0xFFFFFFFFFFFFFFFF DUP2 GT PUSH2 0x13C JUMPI PUSH2 0x45A SWAP1 CALLDATASIZE SWAP1 DUP4 ADD PUSH2 0x97E JUMP JUMPDEST POP POP PUSH32 0x0 PUSH1 0x1 PUSH1 0x1 PUSH1 0xA0 SHL SUB AND CALLER SUB PUSH2 0x196 JUMPI PUSH1 0x40 MLOAD PUSH4 0xA85DC29 PUSH1 0xE0 SHL DUP2 MSTORE REVERT JUMPDEST CALLVALUE PUSH2 0x13C JUMPI PUSH1 0x0 CALLDATASIZE PUSH1 0x3 NOT ADD SLT PUSH2 0x13C JUMPI PUSH1 0x1 SLOAD PUSH1 0x40 MLOAD PUSH1 0x1 PUSH1 0x1 PUSH1 0xA0 SHL SUB SWAP1 SWAP2 AND DUP2 MSTORE PUSH1 0x20 SWAP1 RETURN JUMPDEST CALLVALUE PUSH2 0x13C JUMPI CALLDATASIZE PUSH1 0x3 NOT ADD PUSH1 0xC0 DUP2 SLT PUSH2 0x13C JUMPI PUSH1 0xA0 SGT PUSH2 0x13C JUMPI PUSH2 0x4E5 PUSH2 0xB1F JUMP JUMPDEST PUSH1 0x1 PUSH1 0x1 PUSH1 0xA0 SHL SUB SWAP1 DUP3 CALLDATALOAD DUP3 DUP2 AND DUP2 SUB PUSH2 0x13C JUMPI DUP2 MSTORE PUSH1 0x24 CALLDATALOAD DUP3 DUP2 AND DUP2 SUB PUSH2 0x13C JUMPI PUSH1 0x20 DUP3 ADD MSTORE PUSH1 0x44 CALLDATALOAD PUSH3 0xFFFFFF DUP2 AND DUP2 SUB PUSH2 0x13C JUMPI PUSH1 0x40 DUP3 ADD MSTORE PUSH1 0x64 CALLDATALOAD DUP1 PUSH1 0x2 SIGNEXTEND DUP2 SUB PUSH2 0x13C JUMPI PUSH1 0x60 DUP3 ADD MSTORE PUSH1 0x84 CALLDATALOAD SWAP2 DUP3 AND DUP3 SUB PUSH2 0x13C JUMPI PUSH1 0xA0 SWAP2 PUSH1 0x80 DUP3 ADD MSTORE KECCAK256 PUSH1 0x0 MSTORE PUSH1 0x20 MSTORE PUSH1 0xA4 CALLDATALOAD PUSH1 0x40 PUSH1 0x0 KECCAK256 SSTORE PUSH1 0x0 DUP1 RETURN JUMPDEST CALLVALUE PUSH2 0x13C JUMPI PUSH2 0x569 CALLDATASIZE PUSH2 0xA10 JUMP JUMPDEST POP POP POP PUSH32 0x0 PUSH1 0x1 PUSH1 0x1 PUSH1 0xA0 SHL SUB AND CALLER SUB SWAP4 POP PUSH2 0x196 SWAP3 POP POP POP JUMPI PUSH1 0x40 MLOAD PUSH4 0xA85DC29 PUSH1 0xE0 SHL DUP2 MSTORE REVERT JUMPDEST CALLVALUE PUSH2 0x13C JUMPI PUSH1 0x20 CALLDATASIZE PUSH1 0x3 NOT ADD SLT PUSH2 0x13C JUMPI DUP1 CALLDATALOAD PUSH1 0x0 MSTORE PUSH1 0x20 MSTORE PUSH1 0x20 PUSH1 0x40 PUSH1 0x0 KECCAK256 SLOAD PUSH1 0x40 MLOAD SWAP1 DUP2 MSTORE RETURN JUMPDEST CALLVALUE PUSH2 0x13C JUMPI PUSH2 0x100 CALLDATASIZE PUSH1 0x3 NOT ADD SLT PUSH2 0x13C JUMPI PUSH2 0x5F4 PUSH2 0x968 JUMP JUMPDEST POP PUSH1 0xA0 CALLDATASIZE PUSH1 0x23 NOT ADD SLT PUSH2 0x13C JUMPI PUSH2 0x609 PUSH2 0xA7A JUMP JUMPDEST POP PUSH1 0xE4 CALLDATALOAD DUP1 PUSH1 0x2 SIGNEXTEND SUB PUSH2 0x13C JUMPI PUSH32 0x0 PUSH1 0x1 PUSH1 0x1 PUSH1 0xA0 SHL SUB AND CALLER SUB PUSH2 0x196 JUMPI PUSH1 0x40 MLOAD PUSH4 0xA85DC29 PUSH1 0xE0 SHL DUP2 MSTORE REVERT JUMPDEST CALLVALUE PUSH2 0x13C JUMPI PUSH1 0x0 CALLDATASIZE PUSH1 0x3 NOT ADD SLT PUSH2 0x13C JUMPI PUSH1 0x20 PUSH3 0xFFFFFF PUSH1 0x3 SLOAD AND PUSH1 0x40 MLOAD SWAP1 DUP2 MSTORE RETURN JUMPDEST CALLVALUE PUSH2 0x13C JUMPI CALLDATASIZE PUSH1 0x3 NOT ADD PUSH1 0xC0 DUP2 SLT PUSH2 0x13C JUMPI PUSH1 0xA0 SGT PUSH2 0x13C JUMPI PUSH1 0x1 SLOAD PUSH1 0x1 PUSH1 0x1 PUSH1 0xA0 SHL SUB AND CALLER SUB PUSH2 0x6A9 JUMPI TIMESTAMP PUSH1 0x2 SSTORE STOP JUMPDEST PUSH1 0x40 MLOAD PUSH4 0x1118A5C1 PUSH1 0xE0 SHL DUP2 MSTORE REVERT JUMPDEST CALLVALUE PUSH2 0x13C JUMPI PUSH2 0x140 CALLDATASIZE PUSH1 0x3 NOT ADD SLT PUSH2 0x13C JUMPI PUSH2 0x6D2 PUSH2 0x968 JUMP JUMPDEST POP PUSH1 0xA0 CALLDATASIZE PUSH1 0x23 NOT ADD SLT PUSH2 0x13C JUMPI PUSH1 0x60 CALLDATASIZE PUSH1 0xC3 NOT ADD SLT PUSH2 0x13C JUMPI PUSH2 0x124 CALLDATALOAD PUSH8 0xFFFFFFFFFFFFFFFF DUP2 GT PUSH2 0x13C JUMPI PUSH2 0x70B SWAP1 CALLDATASIZE SWAP1 DUP4 ADD PUSH2 0x97E JUMP JUMPDEST POP PUSH1 0x1 PUSH1 0x1 PUSH1 0xA0 SHL SUB SWAP1 POP PUSH32 0x0 DUP2 AND CALLER SUB PUSH2 0x81B JUMPI PUSH2 0x747 PUSH2 0xB1F JUMP JUMPDEST SWAP1 PUSH1 0x24 CALLDATALOAD DUP2 DUP2 AND DUP2 SUB PUSH2 0x13C JUMPI DUP3 MSTORE PUSH1 0x44 CALLDATALOAD DUP2 DUP2 AND DUP2 SUB PUSH2 0x13C JUMPI PUSH1 0x20 DUP4 ADD MSTORE PUSH3 0xFFFFFF SWAP2 PUSH1 0x64 CALLDATALOAD DUP4 DUP2 AND DUP2 SUB PUSH2 0x13C JUMPI PUSH1 0x40 DUP3 ADD MSTORE PUSH1 0x84 CALLDATALOAD DUP1 PUSH1 0x2 SIGNEXTEND DUP2 SUB PUSH2 0x13C JUMPI PUSH1 0x60 DUP3 ADD MSTORE PUSH1 0xA4 CALLDATALOAD SWAP2 DUP3 AND DUP3 SUB PUSH2 0x13C JUMPI PUSH1 0xA0 SWAP2 PUSH1 0x80 DUP3 ADD MSTORE KECCAK256 PUSH1 0x0 MSTORE DUP2 PUSH1 0x20 MSTORE PUSH1 0x40 PUSH1 0x0 KECCAK256 SLOAD DUP2 PUSH1 0x3 SLOAD AND SWAP1 PUSH1 0xA DUP2 MUL SWAP1 DUP1 DUP3 DIV PUSH1 0xA EQ SWAP1 ISZERO OR ISZERO PUSH2 0x806 JUMPI DUP3 AND ADD GT PUSH2 0x7F1 JUMPI PUSH1 0x60 PUSH1 0x40 MLOAD PUSH4 0x15D7892D PUSH1 0xE2 SHL DUP2 MSTORE PUSH1 0x0 PUSH1 0x20 DUP3 ADD MSTORE PUSH1 0x0 PUSH1 0x40 DUP3 ADD MSTORE RETURN JUMPDEST PUSH1 0x11 SWAP1 PUSH4 0x4E487B71 PUSH1 0xE0 SHL PUSH1 0x0 MSTORE MSTORE PUSH1 0x24 PUSH1 0x0 REVERT JUMPDEST PUSH1 0x11 DUP5 PUSH4 0x4E487B71 PUSH1 0xE0 SHL PUSH1 0x0 MSTORE MSTORE PUSH1 0x24 PUSH1 0x0 REVERT JUMPDEST POP PUSH1 0x40 MLOAD PUSH4 0x570C1085 PUSH1 0xE1 SHL DUP2 MSTORE REVERT JUMPDEST CALLVALUE PUSH2 0x13C JUMPI PUSH1 0x40 CALLDATASIZE PUSH1 0x3 NOT ADD SLT PUSH2 0x13C JUMPI PUSH2 0x844 PUSH2 0x968 JUMP JUMPDEST PUSH1 0x24 CALLDATALOAD SWAP1 DUP2 ISZERO ISZERO DUP1 SWAP3 SUB PUSH2 0x13C JUMPI PUSH1 0x1 DUP1 PUSH1 0xA0 SHL SUB AND PUSH1 0x0 MSTORE PUSH1 0x0 PUSH1 0x20 MSTORE PUSH1 0x40 PUSH1 0x0 KECCAK256 SWAP1 PUSH1 0xFF DUP1 NOT DUP4 SLOAD AND SWAP2 AND OR SWAP1 SSTORE PUSH1 0x0 DUP1 RETURN JUMPDEST CALLVALUE PUSH2 0x13C JUMPI PUSH2 0x887 CALLDATASIZE PUSH2 0x9AC JUMP JUMPDEST POP PUSH1 0x1 PUSH1 0x1 PUSH1 0xA0 SHL SUB SWAP4 SWAP3 POP POP POP PUSH32 0x0 DUP3 AND CALLER SUB PUSH2 0x8F6 JUMPI AND PUSH1 0x0 MSTORE PUSH1 0x0 PUSH1 0x20 MSTORE PUSH1 0xFF PUSH1 0x40 PUSH1 0x0 KECCAK256 SLOAD AND ISZERO PUSH2 0x8E7 JUMPI PUSH1 0x40 MLOAD PUSH4 0x259982E5 PUSH1 0xE0 SHL DUP2 MSTORE PUSH1 0x20 SWAP1 RETURN JUMPDEST PUSH1 0x40 MLOAD PUSH4 0x1FCDF12D PUSH1 0xE2 SHL DUP2 MSTORE REVERT JUMPDEST PUSH1 0x40 MLOAD PUSH4 0x570C1085 PUSH1 0xE1 SHL DUP2 MSTORE DUP4 SWAP1 REVERT JUMPDEST CALLVALUE PUSH2 0x13C JUMPI PUSH2 0x915 CALLDATASIZE PUSH2 0x9AC JUMP JUMPDEST POP POP POP PUSH32 0x0 PUSH1 0x1 PUSH1 0x1 PUSH1 0xA0 SHL SUB AND CALLER SUB SWAP2 POP PUSH2 0x95C SWAP1 POP JUMPI POP PUSH1 0x40 MLOAD PUSH4 0xA85DC29 PUSH1 0xE0 SHL DUP2 MSTORE REVERT JUMPDEST PUSH4 0x570C1085 PUSH1 0xE1 SHL DUP2 MSTORE REVERT JUMPDEST PUSH1 0x4 CALLDATALOAD SWAP1 PUSH1 0x1 PUSH1 0x1 PUSH1 0xA0 SHL SUB DUP3 AND DUP3 SUB PUSH2 0x13C JUMPI JUMP JUMPDEST SWAP2 DUP2 PUSH1 0x1F DUP5 ADD SLT ISZERO PUSH2 0x13C JUMPI DUP3 CALLDATALOAD SWAP2 PUSH8 0xFFFFFFFFFFFFFFFF DUP4 GT PUSH2 0x13C JUMPI PUSH1 0x20 DUP4 DUP2 DUP7 ADD SWAP6 ADD ADD GT PUSH2 0x13C JUMPI JUMP JUMPDEST SWAP1 PUSH2 0x160 PUSH1 0x3 NOT DUP4 ADD SLT PUSH2 0x13C JUMPI PUSH1 0x4 CALLDATALOAD PUSH1 0x1 PUSH1 0x1 PUSH1 0xA0 SHL SUB DUP2 AND DUP2 SUB PUSH2 0x13C JUMPI SWAP2 PUSH1 0xA0 PUSH1 0x23 NOT DUP3 ADD SLT PUSH2 0x13C JUMPI PUSH1 0x24 SWAP2 PUSH1 0x80 PUSH1 0xC3 NOT DUP4 ADD SLT PUSH2 0x13C JUMPI PUSH1 0xC4 SWAP2 PUSH2 0x144 CALLDATALOAD SWAP1 PUSH8 0xFFFFFFFFFFFFFFFF DUP3 GT PUSH2 0x13C JUMPI PUSH2 0xA0C SWAP2 PUSH1 0x4 ADD PUSH2 0x97E JUMP JUMPDEST SWAP1 SWAP2 JUMP JUMPDEST SWAP1 PUSH2 0x1A0 PUSH1 0x3 NOT DUP4 ADD SLT PUSH2 0x13C JUMPI PUSH1 0x4 CALLDATALOAD PUSH1 0x1 PUSH1 0x1 PUSH1 0xA0 SHL SUB DUP2 AND DUP2 SUB PUSH2 0x13C JUMPI SWAP2 PUSH1 0xA0 PUSH1 0x23 NOT DUP3 ADD SLT PUSH2 0x13C JUMPI PUSH1 0x24 SWAP2 PUSH1 0x80 PUSH1 0xC3 NOT DUP4 ADD SLT PUSH2 0x13C JUMPI PUSH1 0xC4 SWAP2 PUSH2 0x144 CALLDATALOAD SWAP2 PUSH2 0x164 CALLDATALOAD SWAP2 PUSH2 0x184 CALLDATALOAD SWAP1 PUSH8 0xFFFFFFFFFFFFFFFF DUP3 GT PUSH2 0x13C JUMPI PUSH2 0xA0C SWAP2 PUSH1 0x4 ADD PUSH2 0x97E JUMP JUMPDEST PUSH1 0xC4 CALLDATALOAD SWAP1 PUSH1 0x1 PUSH1 0x1 PUSH1 0xA0 SHL SUB DUP3 AND DUP3 SUB PUSH2 0x13C JUMPI JUMP JUMPDEST PUSH2 0x120 PUSH1 0x3 NOT DUP3 ADD SLT PUSH2 0x13C JUMPI PUSH1 0x4 CALLDATALOAD PUSH1 0x1 PUSH1 0x1 PUSH1 0xA0 SHL SUB DUP2 AND DUP2 SUB PUSH2 0x13C JUMPI SWAP2 PUSH1 0xA0 PUSH1 0x23 NOT DUP4 ADD SLT PUSH2 0x13C JUMPI PUSH1 0x24 SWAP2 PUSH1 0xC4 CALLDATALOAD SWAP2 PUSH1 0xE4 CALLDATALOAD SWAP2 PUSH2 0x104 CALLDATALOAD SWAP1 PUSH8 0xFFFFFFFFFFFFFFFF DUP3 GT PUSH2 0x13C JUMPI PUSH2 0xA0C SWAP2 PUSH1 0x4 ADD PUSH2 0x97E JUMP JUMPDEST PUSH1 0x40 MLOAD SWAP1 PUSH2 0x1C0 DUP3 ADD DUP3 DUP2 LT PUSH8 0xFFFFFFFFFFFFFFFF DUP3 GT OR PUSH2 0xB09 JUMPI PUSH1 0x40 MSTORE JUMP JUMPDEST PUSH4 0x4E487B71 PUSH1 0xE0 SHL PUSH1 0x0 MSTORE PUSH1 0x41 PUSH1 0x4 MSTORE PUSH1 0x24 PUSH1 0x0 REVERT JUMPDEST PUSH1 0x40 MLOAD SWAP1 PUSH1 0xA0 DUP3 ADD DUP3 DUP2 LT PUSH8 0xFFFFFFFFFFFFFFFF DUP3 GT OR PUSH2 0xB09 JUMPI PUSH1 0x40 MSTORE JUMP INVALID LOG2 PUSH5 0x6970667358 0x22 SLT KECCAK256 DUP2 0xAA PUSH28 0x98DA8B37B012FCB9D89BC0F633B5E5290A3F2EE2E5B4067C130F15BB PUSH25 0x64736F6C634300081800330000000000000000000000000000 "},"methodIdentifiers":{"afterAddLiquidity(address,(address,address,uint24,int24,address),(int24,int24,int256,bytes32),int256,int256,bytes)":"9f063efc","afterDonate(address,(address,address,uint24,int24,address),uint256,uint256,bytes)":"e1b4af69","afterInitialize(address,(address,address,uint24,int24,address),uint160,int24)":"6fe7e6eb","afterRemoveLiquidity(address,(address,address,uint24,int24,address),(int24,int24,int256,bytes32),int256,int256,bytes)":"6c2bbe7e","afterSwap(address,(address,address,uint24,int24,address),(bool,int256,uint160),int256,bytes)":"b47b2fb1","aiAgent()":"a6d5b732","baseFee()":"6ef25c3a","beforeAddLiquidity(address,(address,address,uint24,int24,address),(int24,int24,int256,bytes32),bytes)":"259982e5","beforeDonate(address,(address,address,uint24,int24,address),uint256,uint256,bytes)":"b6a8b0fa","beforeInitialize(address,(address,address,uint24,int24,address),uint160)":"dc98354e","beforeRemoveLiquidity(address,(address,address,uint24,int24,address),(int24,int24,int256,bytes32),bytes)":"21d0ee70","beforeSwap(address,(address,address,uint24,int24,address),(bool,int256,uint160),bytes)":"575e24b4","executeAIRebalance((address,address,uint24,int24,address),int256)":"67463fdd","getHookPermissions()":"c4e833ce","isVIP(address)":"f4201c3c","lastRebalanceTime()":"d9ca21d5","poolManager()":"dc4c90d3","setVIPStatus(address,bool)":"3340a433","updateVolatility((address,address,uint24,int24,address),uint256)":"a2b732b5","volatilityIndex(bytes32)":"93989711"}}}}}