{"src_contracts/ArcVault.sol":{"ArcVault":{"abi":[{"inputs":[{"internalType":"address","name":"_usdc","type":"address"},{"internalType":"address","name":"_arcHook","type":"address"}],"stateMutability":"nonpayable","type":"constructor"},{"inputs":[],"name":"ReentrancyGuardReentrantCall","type":"error"},{"inputs":[{"internalType":"address","name":"token","type":"address"}],"name":"SafeERC20FailedOperation","type":"error"},{"anonymous":false,"inputs":[{"indexed":true,"internalType":"address","name":"sender","type":"address"},{"indexed":true,"internalType":"address","name":"owner","type":"address"},{"indexed":false,"internalType":"uint256","name":"assets","type":"uint256"},{"indexed":false,"internalType":"uint256","name":"shares","type":"uint256"}],"name":"Deposit","type":"event"},{"anonymous":false,"inputs":[{"indexed":true,"internalType":"address","name":"sender","type":"address"},{"indexed":true,"internalType":"address","name":"receiver","type":"address"},{"indexed":true,"internalType":"address","name":"owner","type":"address"},{"indexed":false,"internalType":"uint256","name":"assets","type":"uint256"},{"indexed":false,"internalType":"uint256","name":"shares","type":"uint256"}],"name":"Withdraw","type":"event"},{"inputs":[],"name":"arcHook","outputs":[{"internalType":"address","name":"","type":"address"}],"stateMutability":"view","type":"function"},{"inputs":[{"internalType":"address","name":"","type":"address"}],"name":"balanceOf","outputs":[{"internalType":"uint256","name":"","type":"uint256"}],"stateMutability":"view","type":"function"},{"inputs":[{"internalType":"uint256","name":"assets","type":"uint256"},{"internalType":"address","name":"receiver","type":"address"}],"name":"deposit","outputs":[{"internalType":"uint256","name":"shares","type":"uint256"}],"stateMutability":"nonpayable","type":"function"},{"inputs":[{"internalType":"uint256","name":"assets","type":"uint256"}],"name":"previewDeposit","outputs":[{"internalType":"uint256","name":"","type":"uint256"}],"stateMutability":"view","type":"function"},{"inputs":[{"internalType":"uint256","name":"shares","type":"uint256"}],"name":"previewWithdraw","outputs":[{"internalType":"uint256","name":"","type":"uint256"}],"stateMutability":"view","type":"function"},{"inputs":[],"name":"totalAssets","outputs":[{"internalType":"uint256","name":"","type":"uint256"}],"stateMutability":"view","type":"function"},{"inputs":[],"name":"totalShares","outputs":[{"internalType":"uint256","name":"","type":"uint256"}],"stateMutability":"view","type":"function"},{"inputs":[],"name":"usdc","outputs":[{"internalType":"contract IERC20","name":"","type":"address"}],"stateMutability":"view","type":"function"},{"inputs":[{"internalType":"uint256","name":"shares","type":"uint256"},{"internalType":"address","name":"receiver","type":"address"},{"internalType":"address","name":"owner","type":"address"}],"name":"withdraw","outputs":[{"internalType":"uint256","name":"assets","type":"uint256"}],"stateMutability":"nonpayable","type":"function"}],"evm":{"bytecode":{"linkReferences":{},"object":"60c0346100b557601f6107e638819003918201601f19168301916001600160401b038311848410176100ba5780849260409485528339810103126100b557610052602061004b836100d0565b92016100d0565b60017f9b779b17422d0df92223018b32b4d1fa46e071723d6817e2486d003becc55f00556001600160a01b0390911660805260a05260405161070190816100e582396080518181816101cc0152818161042d0152610566015260a05181609b0152f35b600080fd5b634e487b7160e01b600052604160045260246000fd5b51906001600160a01b03821682036100b55756fe608060408181526004918236101561001657600080fd5b600092833560e01c91826301e1d114146105f1575081630a28a477146105b45781633a98ef39146105955781633e413bee146105515781636e553f651461039957816370a082311461035f578163b460af941461011c578163ef8b30f7146100ce575063f02079c71461008857600080fd5b346100ca57816003193601126100ca57517f00000000000000000000000000000000000000000000000000000000000000006001600160a01b03168152602090f35b5080fd5b9050346101185760203660031901126101185791602092359060015480156000146100fd575050905b51908152f35b61010a9061011293610626565b90549061064f565b906100f7565b8280fd5b919050346101185760603660031901126101185781359161013b61060b565b936001600160a01b03936044358581169291908390036100ca5761015d610689565b801561032e57828252602096600288528186842054106102f5578333036102b257610189835483610626565b9461019860019687549061064f565b9785855260028a528785206101ae85825461067c565b90556101bb84885461067c565b87556101c889865461067c565b85557f00000000000000000000000000000000000000000000000000000000000000008189519463a9059cbb60e01b885216958684528a6024528b8160448180865af19089815114821615610291575b50848a521561027c5750505050845190868252878201527ffbde797d201c681b91056529119e0b02407c7bb96a4a2c75c01fc9667232c8db853392a47f9b779b17422d0df92223018b32b4d1fa46e071723d6817e2486d003becc55f005551908152f35b635274afe760e01b8452169082015260249150fd5b898215166102a85750813b15153d15161638610218565b85903d90823e3d90fd5b855162461bcd60e51b8152808601899052601760248201527f4f6e6c79206f776e65722063616e2077697468647261770000000000000000006044820152606490fd5b855162461bcd60e51b81528086018990526013602482015272496e73756666696369656e742073686172657360681b6044820152606490fd5b845162461bcd60e51b8152602081860152600b60248201526a5a65726f2073686172657360a81b6044820152606490fd5b90503461011857602036600319011261011857356001600160a01b0381169081900361011857828291602094526002845220549051908152f35b8383346100ca57806003193601126100ca5782356103b561060b565b936103be610689565b81156105205760019182548015600014610505575080945b60018060a01b038097169283825260026020528582206103f788825461066f565b905561040487865461066f565b855561041183835461066f565b825585516323b872dd60e01b83523382523060245260448490527f0000000000000000000000000000000000000000000000000000000000000000989092602081606481808e5af190878151148216156104e5575b848952606052156104cf5750505060209550835190815284868201527fdcbc1c05240f31ff3ad067ef1ee35ce4997762752e3a095284754544f4c709d7843392a37f9b779b17422d0df92223018b32b4d1fa46e071723d6817e2486d003becc55f005551908152f35b635274afe760e01b835288169082015260249150fd5b90878115166104fc578a3b15153d15161690610466565b843d83823e3d90fd5b61051261051a9183610626565b86549061064f565b946103d6565b606490602084519162461bcd60e51b8352820152600b60248201526a5a65726f2061737365747360a81b6044820152fd5b5050346100ca57816003193601126100ca57517f00000000000000000000000000000000000000000000000000000000000000006001600160a01b03168152602090f35b5050346100ca57816003193601126100ca576020906001549051908152f35b9050346101185760203660031901126101185760015460209391816105dc5750509051908152f35b6105ec9061011293549035610626565b61064f565b8490346100ca57816003193601126100ca57602091548152f35b602435906001600160a01b038216820361062157565b600080fd5b8181029291811591840414171561063957565b634e487b7160e01b600052601160045260246000fd5b8115610659570490565b634e487b7160e01b600052601260045260246000fd5b9190820180921161063957565b9190820391821161063957565b7f9b779b17422d0df92223018b32b4d1fa46e071723d6817e2486d003becc55f0060028154146106b95760029055565b604051633ee5aeb560e01b8152600490fdfea264697066735822122054f8df535efeea0130a889afe133bfe01a107a67a8ae18db0706e69e0922df4564736f6c63430008180033","opcodes":"PUSH1 0xC0 CALLVALUE PUSH2 0xB5 JUMPI PUSH1 0x1F PUSH2 0x7E6 CODESIZE DUP2 SWAP1 SUB SWAP2 DUP3 ADD PUSH1 0x1F NOT AND DUP4 ADD SWAP2 PUSH1 0x1 PUSH1 0x1 PUSH1 0x40 SHL SUB DUP4 GT DUP5 DUP5 LT OR PUSH2 0xBA JUMPI DUP1 DUP5 SWAP3 PUSH1 0x40 SWAP5 DUP6 MSTORE DUP4 CODECOPY DUP2 ADD SUB SLT PUSH2 0xB5 JUMPI PUSH2 0x52 PUSH1 0x20 PUSH2 0x4B DUP4 PUSH2 0xD0 JUMP JUMPDEST SWAP3 ADD PUSH2 0xD0 JUMP JUMPDEST PUSH1 0x1 PUSH32 0x9B779B17422D0DF92223018B32B4D1FA46E071723D6817E2486D003BECC55F00 SSTORE PUSH1 0x1 PUSH1 0x1 PUSH1 0xA0 SHL SUB SWAP1 SWAP2 AND PUSH1 0x80 MSTORE PUSH1 0xA0 MSTORE PUSH1 0x40 MLOAD PUSH2 0x701 SWAP1 DUP2 PUSH2 0xE5 DUP3 CODECOPY PUSH1 0x80 MLOAD DUP2 DUP2 DUP2 PUSH2 0x1CC ADD MSTORE DUP2 DUP2 PUSH2 0x42D ADD MSTORE PUSH2 0x566 ADD MSTORE PUSH1 0xA0 MLOAD DUP2 PUSH1 0x9B ADD MSTORE RETURN JUMPDEST PUSH1 0x0 DUP1 REVERT JUMPDEST PUSH4 0x4E487B71 PUSH1 0xE0 SHL PUSH1 0x0 MSTORE PUSH1 0x41 PUSH1 0x4 MSTORE PUSH1 0x24 PUSH1 0x0 REVERT JUMPDEST MLOAD SWAP1 PUSH1 0x1 PUSH1 0x1 PUSH1 0xA0 SHL SUB DUP3 AND DUP3 SUB PUSH2 0xB5 JUMPI JUMP INVALID PUSH1 0x80 PUSH1 0x40 DUP2 DUP2 MSTORE PUSH1 0x4 SWAP2 DUP3 CALLDATASIZE LT ISZERO PUSH2 0x16 JUMPI PUSH1 0x0 DUP1 REVERT JUMPDEST PUSH1 0x0 SWAP3 DUP4 CALLDATALOAD PUSH1 0xE0 SHR SWAP2 DUP3 PUSH4 0x1E1D114 EQ PUSH2 0x5F1 JUMPI POP DUP2 PUSH4 0xA28A477 EQ PUSH2 0x5B4 JUMPI DUP2 PUSH4 0x3A98EF39 EQ PUSH2 0x595 JUMPI DUP2 PUSH4 0x3E413BEE EQ PUSH2 0x551 JUMPI DUP2 PUSH4 0x6E553F65 EQ PUSH2 0x399 JUMPI DUP2 PUSH4 0x70A08231 EQ PUSH2 0x35F JUMPI DUP2 PUSH4 0xB460AF94 EQ PUSH2 0x11C JUMPI DUP2 PUSH4 0xEF8B30F7 EQ PUSH2 0xCE JUMPI POP PUSH4 0xF02079C7 EQ PUSH2 0x88 JUMPI PUSH1 0x0 DUP1 REVERT JUMPDEST CALLVALUE PUSH2 0xCA JUMPI DUP2 PUSH1 0x3 NOT CALLDATASIZE ADD SLT PUSH2 0xCA JUMPI MLOAD PUSH32 0x0 PUSH1 0x1 PUSH1 0x1 PUSH1 0xA0 SHL SUB AND DUP2 MSTORE PUSH1 0x20 SWAP1 RETURN JUMPDEST POP DUP1 REVERT JUMPDEST SWAP1 POP CALLVALUE PUSH2 0x118 JUMPI PUSH1 0x20 CALLDATASIZE PUSH1 0x3 NOT ADD SLT PUSH2 0x118 JUMPI SWAP2 PUSH1 0x20 SWAP3 CALLDATALOAD SWAP1 PUSH1 0x1 SLOAD DUP1 ISZERO PUSH1 0x0 EQ PUSH2 0xFD JUMPI POP POP SWAP1 JUMPDEST MLOAD SWAP1 DUP2 MSTORE RETURN JUMPDEST PUSH2 0x10A SWAP1 PUSH2 0x112 SWAP4 PUSH2 0x626 JUMP JUMPDEST SWAP1 SLOAD SWAP1 PUSH2 0x64F JUMP JUMPDEST SWAP1 PUSH2 0xF7 JUMP JUMPDEST DUP3 DUP1 REVERT JUMPDEST SWAP2 SWAP1 POP CALLVALUE PUSH2 0x118 JUMPI PUSH1 0x60 CALLDATASIZE PUSH1 0x3 NOT ADD SLT PUSH2 0x118 JUMPI DUP2 CALLDATALOAD SWAP2 PUSH2 0x13B PUSH2 0x60B JUMP JUMPDEST SWAP4 PUSH1 0x1 PUSH1 0x1 PUSH1 0xA0 SHL SUB SWAP4 PUSH1 0x44 CALLDATALOAD DUP6 DUP2 AND SWAP3 SWAP2 SWAP1 DUP4 SWAP1 SUB PUSH2 0xCA JUMPI PUSH2 0x15D PUSH2 0x689 JUMP JUMPDEST DUP1 ISZERO PUSH2 0x32E JUMPI DUP3 DUP3 MSTORE PUSH1 0x20 SWAP7 PUSH1 0x2 DUP9 MSTORE DUP2 DUP7 DUP5 KECCAK256 SLOAD LT PUSH2 0x2F5 JUMPI DUP4 CALLER SUB PUSH2 0x2B2 JUMPI PUSH2 0x189 DUP4 SLOAD DUP4 PUSH2 0x626 JUMP JUMPDEST SWAP5 PUSH2 0x198 PUSH1 0x1 SWAP7 DUP8 SLOAD SWAP1 PUSH2 0x64F JUMP JUMPDEST SWAP8 DUP6 DUP6 MSTORE PUSH1 0x2 DUP11 MSTORE DUP8 DUP6 KECCAK256 PUSH2 0x1AE DUP6 DUP3 SLOAD PUSH2 0x67C JUMP JUMPDEST SWAP1 SSTORE PUSH2 0x1BB DUP5 DUP9 SLOAD PUSH2 0x67C JUMP JUMPDEST DUP8 SSTORE PUSH2 0x1C8 DUP10 DUP7 SLOAD PUSH2 0x67C JUMP JUMPDEST DUP6 SSTORE PUSH32 0x0 DUP2 DUP10 MLOAD SWAP5 PUSH4 0xA9059CBB PUSH1 0xE0 SHL DUP9 MSTORE AND SWAP6 DUP7 DUP5 MSTORE DUP11 PUSH1 0x24 MSTORE DUP12 DUP2 PUSH1 0x44 DUP2 DUP1 DUP7 GAS CALL SWAP1 DUP10 DUP2 MLOAD EQ DUP3 AND ISZERO PUSH2 0x291 JUMPI JUMPDEST POP DUP5 DUP11 MSTORE ISZERO PUSH2 0x27C JUMPI POP POP POP POP DUP5 MLOAD SWAP1 DUP7 DUP3 MSTORE DUP8 DUP3 ADD MSTORE PUSH32 0xFBDE797D201C681B91056529119E0B02407C7BB96A4A2C75C01FC9667232C8DB DUP6 CALLER SWAP3 LOG4 PUSH32 0x9B779B17422D0DF92223018B32B4D1FA46E071723D6817E2486D003BECC55F00 SSTORE MLOAD SWAP1 DUP2 MSTORE RETURN JUMPDEST PUSH4 0x5274AFE7 PUSH1 0xE0 SHL DUP5 MSTORE AND SWAP1 DUP3 ADD MSTORE PUSH1 0x24 SWAP2 POP REVERT JUMPDEST DUP10 DUP3 ISZERO AND PUSH2 0x2A8 JUMPI POP DUP2 EXTCODESIZE ISZERO ISZERO RETURNDATASIZE ISZERO AND AND CODESIZE PUSH2 0x218 JUMP JUMPDEST DUP6 SWAP1 RETURNDATASIZE SWAP1 DUP3 RETURNDATACOPY RETURNDATASIZE SWAP1 REVERT JUMPDEST DUP6 MLOAD PUSH3 0x461BCD PUSH1 0xE5 SHL DUP2 MSTORE DUP1 DUP7 ADD DUP10 SWAP1 MSTORE PUSH1 0x17 PUSH1 0x24 DUP3 ADD MSTORE PUSH32 0x4F6E6C79206F776E65722063616E207769746864726177000000000000000000 PUSH1 0x44 DUP3 ADD MSTORE PUSH1 0x64 SWAP1 REVERT JUMPDEST DUP6 MLOAD PUSH3 0x461BCD PUSH1 0xE5 SHL DUP2 MSTORE DUP1 DUP7 ADD DUP10 SWAP1 MSTORE PUSH1 0x13 PUSH1 0x24 DUP3 ADD MSTORE PUSH19 0x496E73756666696369656E7420736861726573 PUSH1 0x68 SHL PUSH1 0x44 DUP3 ADD MSTORE PUSH1 0x64 SWAP1 REVERT JUMPDEST DUP5 MLOAD PUSH3 0x461BCD PUSH1 0xE5 SHL DUP2 MSTORE PUSH1 0x20 DUP2 DUP7 ADD MSTORE PUSH1 0xB PUSH1 0x24 DUP3 ADD MSTORE PUSH11 0x5A65726F20736861726573 PUSH1 0xA8 SHL PUSH1 0x44 DUP3 ADD MSTORE PUSH1 0x64 SWAP1 REVERT JUMPDEST SWAP1 POP CALLVALUE PUSH2 0x118 JUMPI PUSH1 0x20 CALLDATASIZE PUSH1 0x3 NOT ADD SLT PUSH2 0x118 JUMPI CALLDATALOAD PUSH1 0x1 PUSH1 0x1 PUSH1 0xA0 SHL SUB DUP2 AND SWAP1 DUP2 SWAP1 SUB PUSH2 0x118 JUMPI DUP3 DUP3 SWAP2 PUSH1 0x20 SWAP5 MSTORE PUSH1 0x2 DUP5 MSTORE KECCAK256 SLOAD SWAP1 MLOAD SWAP1 DUP2 MSTORE RETURN JUMPDEST DUP4 DUP4 CALLVALUE PUSH2 0xCA JUMPI DUP1 PUSH1 0x3 NOT CALLDATASIZE ADD SLT PUSH2 0xCA JUMPI DUP3 CALLDATALOAD PUSH2 0x3B5 PUSH2 0x60B JUMP JUMPDEST SWAP4 PUSH2 0x3BE PUSH2 0x689 JUMP JUMPDEST DUP2 ISZERO PUSH2 0x520 JUMPI PUSH1 0x1 SWAP2 DUP3 SLOAD DUP1 ISZERO PUSH1 0x0 EQ PUSH2 0x505 JUMPI POP DUP1 SWAP5 JUMPDEST PUSH1 0x1 DUP1 PUSH1 0xA0 SHL SUB DUP1 SWAP8 AND SWAP3 DUP4 DUP3 MSTORE PUSH1 0x2 PUSH1 0x20 MSTORE DUP6 DUP3 KECCAK256 PUSH2 0x3F7 DUP9 DUP3 SLOAD PUSH2 0x66F JUMP JUMPDEST SWAP1 SSTORE PUSH2 0x404 DUP8 DUP7 SLOAD PUSH2 0x66F JUMP JUMPDEST DUP6 SSTORE PUSH2 0x411 DUP4 DUP4 SLOAD PUSH2 0x66F JUMP JUMPDEST DUP3 SSTORE DUP6 MLOAD PUSH4 0x23B872DD PUSH1 0xE0 SHL DUP4 MSTORE CALLER DUP3 MSTORE ADDRESS PUSH1 0x24 MSTORE PUSH1 0x44 DUP5 SWAP1 MSTORE PUSH32 0x0 SWAP9 SWAP1 SWAP3 PUSH1 0x20 DUP2 PUSH1 0x64 DUP2 DUP1 DUP15 GAS CALL SWAP1 DUP8 DUP2 MLOAD EQ DUP3 AND ISZERO PUSH2 0x4E5 JUMPI JUMPDEST DUP5 DUP10 MSTORE PUSH1 0x60 MSTORE ISZERO PUSH2 0x4CF JUMPI POP POP POP PUSH1 0x20 SWAP6 POP DUP4 MLOAD SWAP1 DUP2 MSTORE DUP5 DUP7 DUP3 ADD MSTORE PUSH32 0xDCBC1C05240F31FF3AD067EF1EE35CE4997762752E3A095284754544F4C709D7 DUP5 CALLER SWAP3 LOG3 PUSH32 0x9B779B17422D0DF92223018B32B4D1FA46E071723D6817E2486D003BECC55F00 SSTORE MLOAD SWAP1 DUP2 MSTORE RETURN JUMPDEST PUSH4 0x5274AFE7 PUSH1 0xE0 SHL DUP4 MSTORE DUP9 AND SWAP1 DUP3 ADD MSTORE PUSH1 0x24 SWAP2 POP REVERT JUMPDEST SWAP1 DUP8 DUP2 ISZERO AND PUSH2 0x4FC JUMPI DUP11 EXTCODESIZE ISZERO ISZERO RETURNDATASIZE ISZERO AND AND SWAP1 PUSH2 0x466 JUMP JUMPDEST DUP5 RETURNDATASIZE DUP4 DUP3 RETURNDATACOPY RETURNDATASIZE SWAP1 REVERT JUMPDEST PUSH2 0x512 PUSH2 0x51A SWAP2 DUP4 PUSH2 0x626 JUMP JUMPDEST DUP7 SLOAD SWAP1 PUSH2 0x64F JUMP JUMPDEST SWAP5 PUSH2 0x3D6 JUMP JUMPDEST PUSH1 0x64 SWAP1 PUSH1 0x20 DUP5 MLOAD SWAP2 PUSH3 0x461BCD PUSH1 0xE5 SHL DUP4 MSTORE DUP3 ADD MSTORE PUSH1 0xB PUSH1 0x24 DUP3 ADD MSTORE PUSH11 0x5A65726F20617373657473 PUSH1 0xA8 SHL PUSH1 0x44 DUP3 ADD MSTORE REVERT JUMPDEST POP POP CALLVALUE PUSH2 0xCA JUMPI DUP2 PUSH1 0x3 NOT CALLDATASIZE ADD SLT PUSH2 0xCA JUMPI MLOAD PUSH32 0x0 PUSH1 0x1 PUSH1 0x1 PUSH1 0xA0 SHL SUB AND DUP2 MSTORE PUSH1 0x20 SWAP1 RETURN JUMPDEST POP POP CALLVALUE PUSH2 0xCA JUMPI DUP2 PUSH1 0x3 NOT CALLDATASIZE ADD SLT PUSH2 0xCA JUMPI PUSH1 0x20 SWAP1 PUSH1 0x1 SLOAD SWAP1 MLOAD SWAP1 DUP2 MSTORE RETURN JUMPDEST SWAP1 POP CALLVALUE PUSH2 0x118 JUMPI PUSH1 0x20 CALLDATASIZE PUSH1 0x3 NOT ADD SLT PUSH2 0x118 JUMPI PUSH1 0x1 SLOAD PUSH1 0x20 SWAP4 SWAP2 DUP2 PUSH2 0x5DC JUMPI POP POP SWAP1 MLOAD SWAP1 DUP2 MSTORE RETURN JUMPDEST PUSH2 0x5EC SWAP1 PUSH2 0x112 SWAP4 SLOAD SWAP1 CALLDATALOAD PUSH2 0x626 JUMP JUMPDEST PUSH2 0x64F JUMP JUMPDEST DUP5 SWAP1 CALLVALUE PUSH2 0xCA JUMPI DUP2 PUSH1 0x3 NOT CALLDATASIZE ADD SLT PUSH2 0xCA JUMPI PUSH1 0x20 SWAP2 SLOAD DUP2 MSTORE RETURN JUMPDEST PUSH1 0x24 CALLDATALOAD SWAP1 PUSH1 0x1 PUSH1 0x1 PUSH1 0xA0 SHL SUB DUP3 AND DUP3 SUB PUSH2 0x621 JUMPI JUMP JUMPDEST PUSH1 0x0 DUP1 REVERT JUMPDEST DUP2 DUP2 MUL SWAP3 SWAP2 DUP2 ISZERO SWAP2 DUP5 DIV EQ OR ISZERO PUSH2 0x639 JUMPI JUMP JUMPDEST PUSH4 0x4E487B71 PUSH1 0xE0 SHL PUSH1 0x0 MSTORE PUSH1 0x11 PUSH1 0x4 MSTORE PUSH1 0x24 PUSH1 0x0 REVERT JUMPDEST DUP2 ISZERO PUSH2 0x659 JUMPI DIV SWAP1 JUMP JUMPDEST PUSH4 0x4E487B71 PUSH1 0xE0 SHL PUSH1 0x0 MSTORE PUSH1 0x12 PUSH1 0x4 MSTORE PUSH1 0x24 PUSH1 0x0 REVERT JUMPDEST SWAP2 SWAP1 DUP3 ADD DUP1 SWAP3 GT PUSH2 0x639 JUMPI JUMP JUMPDEST SWAP2 SWAP1 DUP3 SUB SWAP2 DUP3 GT PUSH2 0x639 JUMPI JUMP JUMPDEST PUSH32 0x9B779B17422D0DF92223018B32B4D1FA46E071723D6817E2486D003BECC55F00 PUSH1 0x2 DUP2 SLOAD EQ PUSH2 0x6B9 JUMPI PUSH1 0x2 SWAP1 SSTORE JUMP JUMPDEST PUSH1 0x40 MLOAD PUSH4 0x3EE5AEB5 PUSH1 0xE0 SHL DUP2 MSTORE PUSH1 0x4 SWAP1 REVERT INVALID LOG2 PUSH5 0x6970667358 0x22 SLT KECCAK256 SLOAD 0xF8 0xDF MSTORE8 MCOPY INVALID 0xEA ADD ADDRESS 0xA8 DUP10 0xAF 0xE1 CALLER 0xBF 0xE0 BYTE LT PUSH27 0x67A8AE18DB0706E69E0922DF4564736F6C63430008180033000000 "},"methodIdentifiers":{"arcHook()":"f02079c7","balanceOf(address)":"70a08231","deposit(uint256,address)":"6e553f65","previewDeposit(uint256)":"ef8b30f7","previewWithdraw(uint256)":"0a28a477","totalAssets()":"01e1d114","totalShares()":"3a98ef39","usdc()":"3e413bee","withdraw(uint256,address,address)":"b460af94"}}}}}