{"src_contracts/ArcVault.sol":{"ArcVault":{"abi":[{"inputs":[],"name":"ReentrancyGuardReentrantCall","type":"error"},{"anonymous":false,"inputs":[{"indexed":true,"internalType":"address","name":"owner","type":"address"},{"indexed":false,"internalType":"uint256","name":"assets","type":"uint256"},{"indexed":false,"internalType":"uint256","name":"shares","type":"uint256"}],"name":"Deposit","type":"event"},{"anonymous":false,"inputs":[{"indexed":true,"internalType":"address","name":"owner","type":"address"},{"indexed":true,"internalType":"address","name":"receiver","type":"address"},{"indexed":false,"internalType":"uint256","name":"assets","type":"uint256"},{"indexed":false,"internalType":"uint256","name":"shares","type":"uint256"}],"name":"Withdraw","type":"event"},{"inputs":[{"internalType":"address","name":"account","type":"address"}],"name":"balanceOf","outputs":[{"internalType":"uint256","name":"","type":"uint256"}],"stateMutability":"view","type":"function"},{"inputs":[{"internalType":"address","name":"receiver","type":"address"}],"name":"deposit","outputs":[{"internalType":"uint256","name":"shares","type":"uint256"}],"stateMutability":"payable","type":"function"},{"inputs":[{"internalType":"uint256","name":"assets","type":"uint256"}],"name":"previewDeposit","outputs":[{"internalType":"uint256","name":"","type":"uint256"}],"stateMutability":"view","type":"function"},{"inputs":[{"internalType":"uint256","name":"shares","type":"uint256"}],"name":"previewWithdraw","outputs":[{"internalType":"uint256","name":"","type":"uint256"}],"stateMutability":"view","type":"function"},{"inputs":[{"internalType":"address","name":"","type":"address"}],"name":"sharesOf","outputs":[{"internalType":"uint256","name":"","type":"uint256"}],"stateMutability":"view","type":"function"},{"inputs":[],"name":"totalAssets","outputs":[{"internalType":"uint256","name":"","type":"uint256"}],"stateMutability":"view","type":"function"},{"inputs":[],"name":"totalShares","outputs":[{"internalType":"uint256","name":"","type":"uint256"}],"stateMutability":"view","type":"function"},{"inputs":[{"internalType":"uint256","name":"shares","type":"uint256"},{"internalType":"address payable","name":"receiver","type":"address"}],"name":"withdraw","outputs":[{"internalType":"uint256","name":"assets","type":"uint256"}],"stateMutability":"nonpayable","type":"function"}],"evm":{"bytecode":{"linkReferences":{},"object":"6080806040523461003a5760017f9b779b17422d0df92223018b32b4d1fa46e071723d6817e2486d003becc55f005561060090816100408239f35b600080fdfe6040608081526004908136101561001557600080fd5b600091823560e01c8062f714ce146102f657806301e1d114146102d95780630a28a4771461029d5780633a98ef391461027e57806370a0823114610245578063ef8b30f7146101ee578063f340fa01146100b45763f5eb42dc1461007857600080fd5b346100b05760203660031901126100b057356001600160a01b038116908190036100b057828291602094526002845220549051908152f35b8280fd5b50829060203660031901126101ea5780356001600160a01b03811691908290036100b0576100e0610588565b34156101ae575091602092600154801580156101a5575b1561018a575034925b8181526002855282812061011585825461057b565b90556101238460015461057b565b60015561013134825461057b565b90557f90890809c654f11d6e72a28fa60149770a0d11ec6c92319d6ceb2bb0a4ea1a158280513481528587820152a260017f9b779b17422d0df92223018b32b4d1fa46e071723d6817e2486d003becc55f005551908152f35b61019761019f9134610525565b84549061054e565b92610100565b508354156100f7565b606490602085519162461bcd60e51b83528201526016602482015275105c98d5985d5b1d0e881e995c9bc819195c1bdcda5d60521b6044820152fd5b5080fd5b50346100b05760203660031901126100b0579160209235906001548015801561023c575b15610221575050905b51908152f35b61022e9061023693610525565b90549061054e565b9061021b565b50815415610212565b50346100b05760203660031901126100b057356001600160a01b038116908190036100b057828291602094526002845220549051908152f35b5050346101ea57816003193601126101ea576020906001549051908152f35b50346100b05760203660031901126100b05760015460209391816102c45750509051908152f35b6102d49061023693549035610525565b61054e565b5050346101ea57816003193601126101ea57602091549051908152f35b509190346101ea57806003193601126101ea5760249283356001600160a01b038116918035918390036105215761032b610588565b81156104e757338552602095600287528285872054106104a55761035c610353875485610525565b6001549061054e565b953381526002885285812061037285825461056e565b90556103808460015461056e565b60015561038e87825461056e565b8155808080808a895af1903d1561049f5767ffffffffffffffff903d82811161048d57885192601f8201601f19908116603f011684019081118482101761047b5789528252893d92013e5b15610439575050825190848252858201527ff341246adaac6f497bc2a656f546ab9e182111d630394f0c57c710a59a2cb567833392a360017f9b779b17422d0df92223018b32b4d1fa46e071723d6817e2486d003becc55f005551908152f35b845162461bcd60e51b81529182018790526019908201527f4172635661756c743a207472616e73666572206661696c6564000000000000006044820152606490fd5b634e487b7160e01b8352604187528583fd5b634e487b7160e01b8252604186528482fd5b506103d9565b845162461bcd60e51b8152918201879052601d908201527f4172635661756c743a20696e73756666696369656e74207368617265730000006044820152606490fd5b606490601587602087519362461bcd60e51b8552840152820152744172635661756c743a207a65726f2073686172657360581b6044820152fd5b8480fd5b8181029291811591840414171561053857565b634e487b7160e01b600052601160045260246000fd5b8115610558570490565b634e487b7160e01b600052601260045260246000fd5b9190820391821161053857565b9190820180921161053857565b7f9b779b17422d0df92223018b32b4d1fa46e071723d6817e2486d003becc55f0060028154146105b85760029055565b604051633ee5aeb560e01b8152600490fdfea264697066735822122016ad27468ccec49e37d7e323494bc940246782020e20203383b5763eb585b8b264736f6c63430008180033","opcodes":"PUSH1 0x80 DUP1 PUSH1 0x40 MSTORE CALLVALUE PUSH2 0x3A JUMPI PUSH1 0x1 PUSH32 0x9B779B17422D0DF92223018B32B4D1FA46E071723D6817E2486D003BECC55F00 SSTORE PUSH2 0x600 SWAP1 DUP2 PUSH2 0x40 DUP3 CODECOPY RETURN JUMPDEST PUSH1 0x0 DUP1 REVERT INVALID PUSH1 0x40 PUSH1 0x80 DUP2 MSTORE PUSH1 0x4 SWAP1 DUP2 CALLDATASIZE LT ISZERO PUSH2 0x15 JUMPI PUSH1 0x0 DUP1 REVERT JUMPDEST PUSH1 0x0 SWAP2 DUP3 CALLDATALOAD PUSH1 0xE0 SHR DUP1 PUSH3 0xF714CE EQ PUSH2 0x2F6 JUMPI DUP1 PUSH4 0x1E1D114 EQ PUSH2 0x2D9 JUMPI DUP1 PUSH4 0xA28A477 EQ PUSH2 0x29D JUMPI DUP1 PUSH4 0x3A98EF39 EQ PUSH2 0x27E JUMPI DUP1 PUSH4 0x70A08231 EQ PUSH2 0x245 JUMPI DUP1 PUSH4 0xEF8B30F7 EQ PUSH2 0x1EE JUMPI DUP1 PUSH4 0xF340FA01 EQ PUSH2 0xB4 JUMPI PUSH4 0xF5EB42DC EQ PUSH2 0x78 JUMPI PUSH1 0x0 DUP1 REVERT JUMPDEST CALLVALUE PUSH2 0xB0 JUMPI PUSH1 0x20 CALLDATASIZE PUSH1 0x3 NOT ADD SLT PUSH2 0xB0 JUMPI CALLDATALOAD PUSH1 0x1 PUSH1 0x1 PUSH1 0xA0 SHL SUB DUP2 AND SWAP1 DUP2 SWAP1 SUB PUSH2 0xB0 JUMPI DUP3 DUP3 SWAP2 PUSH1 0x20 SWAP5 MSTORE PUSH1 0x2 DUP5 MSTORE KECCAK256 SLOAD SWAP1 MLOAD SWAP1 DUP2 MSTORE RETURN JUMPDEST DUP3 DUP1 REVERT JUMPDEST POP DUP3 SWAP1 PUSH1 0x20 CALLDATASIZE PUSH1 0x3 NOT ADD SLT PUSH2 0x1EA JUMPI DUP1 CALLDATALOAD PUSH1 0x1 PUSH1 0x1 PUSH1 0xA0 SHL SUB DUP2 AND SWAP2 SWAP1 DUP3 SWAP1 SUB PUSH2 0xB0 JUMPI PUSH2 0xE0 PUSH2 0x588 JUMP JUMPDEST CALLVALUE ISZERO PUSH2 0x1AE JUMPI POP SWAP2 PUSH1 0x20 SWAP3 PUSH1 0x1 SLOAD DUP1 ISZERO DUP1 ISZERO PUSH2 0x1A5 JUMPI JUMPDEST ISZERO PUSH2 0x18A JUMPI POP CALLVALUE SWAP3 JUMPDEST DUP2 DUP2 MSTORE PUSH1 0x2 DUP6 MSTORE DUP3 DUP2 KECCAK256 PUSH2 0x115 DUP6 DUP3 SLOAD PUSH2 0x57B JUMP JUMPDEST SWAP1 SSTORE PUSH2 0x123 DUP5 PUSH1 0x1 SLOAD PUSH2 0x57B JUMP JUMPDEST PUSH1 0x1 SSTORE PUSH2 0x131 CALLVALUE DUP3 SLOAD PUSH2 0x57B JUMP JUMPDEST SWAP1 SSTORE PUSH32 0x90890809C654F11D6E72A28FA60149770A0D11EC6C92319D6CEB2BB0A4EA1A15 DUP3 DUP1 MLOAD CALLVALUE DUP2 MSTORE DUP6 DUP8 DUP3 ADD MSTORE LOG2 PUSH1 0x1 PUSH32 0x9B779B17422D0DF92223018B32B4D1FA46E071723D6817E2486D003BECC55F00 SSTORE MLOAD SWAP1 DUP2 MSTORE RETURN JUMPDEST PUSH2 0x197 PUSH2 0x19F SWAP2 CALLVALUE PUSH2 0x525 JUMP JUMPDEST DUP5 SLOAD SWAP1 PUSH2 0x54E JUMP JUMPDEST SWAP3 PUSH2 0x100 JUMP JUMPDEST POP DUP4 SLOAD ISZERO PUSH2 0xF7 JUMP JUMPDEST PUSH1 0x64 SWAP1 PUSH1 0x20 DUP6 MLOAD SWAP2 PUSH3 0x461BCD PUSH1 0xE5 SHL DUP4 MSTORE DUP3 ADD MSTORE PUSH1 0x16 PUSH1 0x24 DUP3 ADD MSTORE PUSH22 0x105C98D5985D5B1D0E881E995C9BC819195C1BDCDA5D PUSH1 0x52 SHL PUSH1 0x44 DUP3 ADD MSTORE REVERT JUMPDEST POP DUP1 REVERT JUMPDEST POP CALLVALUE PUSH2 0xB0 JUMPI PUSH1 0x20 CALLDATASIZE PUSH1 0x3 NOT ADD SLT PUSH2 0xB0 JUMPI SWAP2 PUSH1 0x20 SWAP3 CALLDATALOAD SWAP1 PUSH1 0x1 SLOAD DUP1 ISZERO DUP1 ISZERO PUSH2 0x23C JUMPI JUMPDEST ISZERO PUSH2 0x221 JUMPI POP POP SWAP1 JUMPDEST MLOAD SWAP1 DUP2 MSTORE RETURN JUMPDEST PUSH2 0x22E SWAP1 PUSH2 0x236 SWAP4 PUSH2 0x525 JUMP JUMPDEST SWAP1 SLOAD SWAP1 PUSH2 0x54E JUMP JUMPDEST SWAP1 PUSH2 0x21B JUMP JUMPDEST POP DUP2 SLOAD ISZERO PUSH2 0x212 JUMP JUMPDEST POP CALLVALUE PUSH2 0xB0 JUMPI PUSH1 0x20 CALLDATASIZE PUSH1 0x3 NOT ADD SLT PUSH2 0xB0 JUMPI CALLDATALOAD PUSH1 0x1 PUSH1 0x1 PUSH1 0xA0 SHL SUB DUP2 AND SWAP1 DUP2 SWAP1 SUB PUSH2 0xB0 JUMPI DUP3 DUP3 SWAP2 PUSH1 0x20 SWAP5 MSTORE PUSH1 0x2 DUP5 MSTORE KECCAK256 SLOAD SWAP1 MLOAD SWAP1 DUP2 MSTORE RETURN JUMPDEST POP POP CALLVALUE PUSH2 0x1EA JUMPI DUP2 PUSH1 0x3 NOT CALLDATASIZE ADD SLT PUSH2 0x1EA JUMPI PUSH1 0x20 SWAP1 PUSH1 0x1 SLOAD SWAP1 MLOAD SWAP1 DUP2 MSTORE RETURN JUMPDEST POP CALLVALUE PUSH2 0xB0 JUMPI PUSH1 0x20 CALLDATASIZE PUSH1 0x3 NOT ADD SLT PUSH2 0xB0 JUMPI PUSH1 0x1 SLOAD PUSH1 0x20 SWAP4 SWAP2 DUP2 PUSH2 0x2C4 JUMPI POP POP SWAP1 MLOAD SWAP1 DUP2 MSTORE RETURN JUMPDEST PUSH2 0x2D4 SWAP1 PUSH2 0x236 SWAP4 SLOAD SWAP1 CALLDATALOAD PUSH2 0x525 JUMP JUMPDEST PUSH2 0x54E JUMP JUMPDEST POP POP CALLVALUE PUSH2 0x1EA JUMPI DUP2 PUSH1 0x3 NOT CALLDATASIZE ADD SLT PUSH2 0x1EA JUMPI PUSH1 0x20 SWAP2 SLOAD SWAP1 MLOAD SWAP1 DUP2 MSTORE RETURN JUMPDEST POP SWAP2 SWAP1 CALLVALUE PUSH2 0x1EA JUMPI DUP1 PUSH1 0x3 NOT CALLDATASIZE ADD SLT PUSH2 0x1EA JUMPI PUSH1 0x24 SWAP3 DUP4 CALLDATALOAD PUSH1 0x1 PUSH1 0x1 PUSH1 0xA0 SHL SUB DUP2 AND SWAP2 DUP1 CALLDATALOAD SWAP2 DUP4 SWAP1 SUB PUSH2 0x521 JUMPI PUSH2 0x32B PUSH2 0x588 JUMP JUMPDEST DUP2 ISZERO PUSH2 0x4E7 JUMPI CALLER DUP6 MSTORE PUSH1 0x20 SWAP6 PUSH1 0x2 DUP8 MSTORE DUP3 DUP6 DUP8 KECCAK256 SLOAD LT PUSH2 0x4A5 JUMPI PUSH2 0x35C PUSH2 0x353 DUP8 SLOAD DUP6 PUSH2 0x525 JUMP JUMPDEST PUSH1 0x1 SLOAD SWAP1 PUSH2 0x54E JUMP JUMPDEST SWAP6 CALLER DUP2 MSTORE PUSH1 0x2 DUP9 MSTORE DUP6 DUP2 KECCAK256 PUSH2 0x372 DUP6 DUP3 SLOAD PUSH2 0x56E JUMP JUMPDEST SWAP1 SSTORE PUSH2 0x380 DUP5 PUSH1 0x1 SLOAD PUSH2 0x56E JUMP JUMPDEST PUSH1 0x1 SSTORE PUSH2 0x38E DUP8 DUP3 SLOAD PUSH2 0x56E JUMP JUMPDEST DUP2 SSTORE DUP1 DUP1 DUP1 DUP1 DUP11 DUP10 GAS CALL SWAP1 RETURNDATASIZE ISZERO PUSH2 0x49F JUMPI PUSH8 0xFFFFFFFFFFFFFFFF SWAP1 RETURNDATASIZE DUP3 DUP2 GT PUSH2 0x48D JUMPI DUP9 MLOAD SWAP3 PUSH1 0x1F DUP3 ADD PUSH1 0x1F NOT SWAP1 DUP2 AND PUSH1 0x3F ADD AND DUP5 ADD SWAP1 DUP2 GT DUP5 DUP3 LT OR PUSH2 0x47B JUMPI DUP10 MSTORE DUP3 MSTORE DUP10 RETURNDATASIZE SWAP3 ADD RETURNDATACOPY JUMPDEST ISZERO PUSH2 0x439 JUMPI POP POP DUP3 MLOAD SWAP1 DUP5 DUP3 MSTORE DUP6 DUP3 ADD MSTORE PUSH32 0xF341246ADAAC6F497BC2A656F546AB9E182111D630394F0C57C710A59A2CB567 DUP4 CALLER SWAP3 LOG3 PUSH1 0x1 PUSH32 0x9B779B17422D0DF92223018B32B4D1FA46E071723D6817E2486D003BECC55F00 SSTORE MLOAD SWAP1 DUP2 MSTORE RETURN JUMPDEST DUP5 MLOAD PUSH3 0x461BCD PUSH1 0xE5 SHL DUP2 MSTORE SWAP2 DUP3 ADD DUP8 SWAP1 MSTORE PUSH1 0x19 SWAP1 DUP3 ADD MSTORE PUSH32 0x4172635661756C743A207472616E73666572206661696C656400000000000000 PUSH1 0x44 DUP3 ADD MSTORE PUSH1 0x64 SWAP1 REVERT JUMPDEST PUSH4 0x4E487B71 PUSH1 0xE0 SHL DUP4 MSTORE PUSH1 0x41 DUP8 MSTORE DUP6 DUP4 REVERT JUMPDEST PUSH4 0x4E487B71 PUSH1 0xE0 SHL DUP3 MSTORE PUSH1 0x41 DUP7 MSTORE DUP5 DUP3 REVERT JUMPDEST POP PUSH2 0x3D9 JUMP JUMPDEST DUP5 MLOAD PUSH3 0x461BCD PUSH1 0xE5 SHL DUP2 MSTORE SWAP2 DUP3 ADD DUP8 SWAP1 MSTORE PUSH1 0x1D SWAP1 DUP3 ADD MSTORE PUSH32 0x4172635661756C743A20696E73756666696369656E7420736861726573000000 PUSH1 0x44 DUP3 ADD MSTORE PUSH1 0x64 SWAP1 REVERT JUMPDEST PUSH1 0x64 SWAP1 PUSH1 0x15 DUP8 PUSH1 0x20 DUP8 MLOAD SWAP4 PUSH3 0x461BCD PUSH1 0xE5 SHL DUP6 MSTORE DUP5 ADD MSTORE DUP3 ADD MSTORE PUSH21 0x4172635661756C743A207A65726F20736861726573 PUSH1 0x58 SHL PUSH1 0x44 DUP3 ADD MSTORE REVERT JUMPDEST DUP5 DUP1 REVERT JUMPDEST DUP2 DUP2 MUL SWAP3 SWAP2 DUP2 ISZERO SWAP2 DUP5 DIV EQ OR ISZERO PUSH2 0x538 JUMPI JUMP JUMPDEST PUSH4 0x4E487B71 PUSH1 0xE0 SHL PUSH1 0x0 MSTORE PUSH1 0x11 PUSH1 0x4 MSTORE PUSH1 0x24 PUSH1 0x0 REVERT JUMPDEST DUP2 ISZERO PUSH2 0x558 JUMPI DIV SWAP1 JUMP JUMPDEST PUSH4 0x4E487B71 PUSH1 0xE0 SHL PUSH1 0x0 MSTORE PUSH1 0x12 PUSH1 0x4 MSTORE PUSH1 0x24 PUSH1 0x0 REVERT JUMPDEST SWAP2 SWAP1 DUP3 SUB SWAP2 DUP3 GT PUSH2 0x538 JUMPI JUMP JUMPDEST SWAP2 SWAP1 DUP3 ADD DUP1 SWAP3 GT PUSH2 0x538 JUMPI JUMP JUMPDEST PUSH32 0x9B779B17422D0DF92223018B32B4D1FA46E071723D6817E2486D003BECC55F00 PUSH1 0x2 DUP2 SLOAD EQ PUSH2 0x5B8 JUMPI PUSH1 0x2 SWAP1 SSTORE JUMP JUMPDEST PUSH1 0x40 MLOAD PUSH4 0x3EE5AEB5 PUSH1 0xE0 SHL DUP2 MSTORE PUSH1 0x4 SWAP1 REVERT INVALID LOG2 PUSH5 0x6970667358 0x22 SLT KECCAK256 AND 0xAD 0x27 CHAINID DUP13 0xCE 0xC4 SWAP15 CALLDATACOPY 0xD7 0xE3 0x23 BLOBHASH 0x4B 0xC9 BLOCKHASH 0x24 PUSH8 0x82020E20203383B5 PUSH23 0x3EB585B8B264736F6C6343000818003300000000000000 "},"methodIdentifiers":{"balanceOf(address)":"70a08231","deposit(address)":"f340fa01","previewDeposit(uint256)":"ef8b30f7","previewWithdraw(uint256)":"0a28a477","sharesOf(address)":"f5eb42dc","totalAssets()":"01e1d114","totalShares()":"3a98ef39","withdraw(uint256,address)":"00f714ce"}}}}}