{
  "_format": "hh-sol-artifact-1",
  "contractName": "LPFeeLibrary",
  "sourceName": "@uniswap/v4-core/src/libraries/LPFeeLibrary.sol",
  "abi": [
    {
      "inputs": [
        {
          "internalType": "uint24",
          "name": "fee",
          "type": "uint24"
        }
      ],
      "name": "LPFeeTooLarge",
      "type": "error"
    },
    {
      "inputs": [],
      "name": "DYNAMIC_FEE_FLAG",
      "outputs": [
        {
          "internalType": "uint24",
          "name": "",
          "type": "uint24"
        }
      ],
      "stateMutability": "view",
      "type": "function"
    },
    {
      "inputs": [],
      "name": "MAX_LP_FEE",
      "outputs": [
        {
          "internalType": "uint24",
          "name": "",
          "type": "uint24"
        }
      ],
      "stateMutability": "view",
      "type": "function"
    },
    {
      "inputs": [],
      "name": "OVERRIDE_FEE_FLAG",
      "outputs": [
        {
          "internalType": "uint24",
          "name": "",
          "type": "uint24"
        }
      ],
      "stateMutability": "view",
      "type": "function"
    },
    {
      "inputs": [],
      "name": "REMOVE_OVERRIDE_MASK",
      "outputs": [
        {
          "internalType": "uint24",
          "name": "",
          "type": "uint24"
        }
      ],
      "stateMutability": "view",
      "type": "function"
    }
  ],
  "bytecode": "0x608080604052346100195760e3908161001f823930815050f35b600080fdfe6080806040526004361015601257600080fd5b600090813560e01c9081633b01d64d146092575080633fc48eba14607a5780636f95ebcf1460625763f26ef49d14604857600080fd5b80600319360112605f576020604051628000008152f35b80fd5b5080600319360112605f57602060405162bfffff8152f35b5080600319360112605f576020604051620f42408152f35b90508160031936011260a957806240000060209252f35b5080fdfea2646970667358221220966f98d668b28dbcd9a17bd29e13b49614872414d7b55ee902dd6cc5a57ccddf64736f6c63430008180033",
  "linkReferences": {},
  "deployedLinkReferences": {}
}