{
  "_format": "hh-sol-artifact-1",
  "contractName": "ArcVault",
  "sourceName": "src_contracts/ArcVault.sol",
  "abi": [
    {
      "inputs": [],
      "name": "ReentrancyGuardReentrantCall",
      "type": "error"
    },
    {
      "anonymous": false,
      "inputs": [
        {
          "indexed": true,
          "internalType": "address",
          "name": "owner",
          "type": "address"
        },
        {
          "indexed": false,
          "internalType": "uint256",
          "name": "assets",
          "type": "uint256"
        },
        {
          "indexed": false,
          "internalType": "uint256",
          "name": "shares",
          "type": "uint256"
        }
      ],
      "name": "Deposit",
      "type": "event"
    },
    {
      "anonymous": false,
      "inputs": [
        {
          "indexed": true,
          "internalType": "address",
          "name": "owner",
          "type": "address"
        },
        {
          "indexed": true,
          "internalType": "address",
          "name": "receiver",
          "type": "address"
        },
        {
          "indexed": false,
          "internalType": "uint256",
          "name": "assets",
          "type": "uint256"
        },
        {
          "indexed": false,
          "internalType": "uint256",
          "name": "shares",
          "type": "uint256"
        }
      ],
      "name": "Withdraw",
      "type": "event"
    },
    {
      "inputs": [
        {
          "internalType": "address",
          "name": "account",
          "type": "address"
        }
      ],
      "name": "balanceOf",
      "outputs": [
        {
          "internalType": "uint256",
          "name": "",
          "type": "uint256"
        }
      ],
      "stateMutability": "view",
      "type": "function"
    },
    {
      "inputs": [
        {
          "internalType": "address",
          "name": "receiver",
          "type": "address"
        }
      ],
      "name": "deposit",
      "outputs": [
        {
          "internalType": "uint256",
          "name": "shares",
          "type": "uint256"
        }
      ],
      "stateMutability": "payable",
      "type": "function"
    },
    {
      "inputs": [
        {
          "internalType": "uint256",
          "name": "assets",
          "type": "uint256"
        }
      ],
      "name": "previewDeposit",
      "outputs": [
        {
          "internalType": "uint256",
          "name": "",
          "type": "uint256"
        }
      ],
      "stateMutability": "view",
      "type": "function"
    },
    {
      "inputs": [
        {
          "internalType": "uint256",
          "name": "shares",
          "type": "uint256"
        }
      ],
      "name": "previewWithdraw",
      "outputs": [
        {
          "internalType": "uint256",
          "name": "",
          "type": "uint256"
        }
      ],
      "stateMutability": "view",
      "type": "function"
    },
    {
      "inputs": [
        {
          "internalType": "address",
          "name": "",
          "type": "address"
        }
      ],
      "name": "sharesOf",
      "outputs": [
        {
          "internalType": "uint256",
          "name": "",
          "type": "uint256"
        }
      ],
      "stateMutability": "view",
      "type": "function"
    },
    {
      "inputs": [],
      "name": "totalAssets",
      "outputs": [
        {
          "internalType": "uint256",
          "name": "",
          "type": "uint256"
        }
      ],
      "stateMutability": "view",
      "type": "function"
    },
    {
      "inputs": [],
      "name": "totalShares",
      "outputs": [
        {
          "internalType": "uint256",
          "name": "",
          "type": "uint256"
        }
      ],
      "stateMutability": "view",
      "type": "function"
    },
    {
      "inputs": [
        {
          "internalType": "uint256",
          "name": "shares",
          "type": "uint256"
        },
        {
          "internalType": "address payable",
          "name": "receiver",
          "type": "address"
        }
      ],
      "name": "withdraw",
      "outputs": [
        {
          "internalType": "uint256",
          "name": "assets",
          "type": "uint256"
        }
      ],
      "stateMutability": "nonpayable",
      "type": "function"
    }
  ],
  "bytecode": "0x6080806040523461003a5760017f9b779b17422d0df92223018b32b4d1fa46e071723d6817e2486d003becc55f005561060090816100408239f35b600080fdfe6040608081526004908136101561001557600080fd5b600091823560e01c8062f714ce146102f657806301e1d114146102d95780630a28a4771461029d5780633a98ef391461027e57806370a0823114610245578063ef8b30f7146101ee578063f340fa01146100b45763f5eb42dc1461007857600080fd5b346100b05760203660031901126100b057356001600160a01b038116908190036100b057828291602094526002845220549051908152f35b8280fd5b50829060203660031901126101ea5780356001600160a01b03811691908290036100b0576100e0610588565b34156101ae575091602092600154801580156101a5575b1561018a575034925b8181526002855282812061011585825461057b565b90556101238460015461057b565b60015561013134825461057b565b90557f90890809c654f11d6e72a28fa60149770a0d11ec6c92319d6ceb2bb0a4ea1a158280513481528587820152a260017f9b779b17422d0df92223018b32b4d1fa46e071723d6817e2486d003becc55f005551908152f35b61019761019f9134610525565b84549061054e565b92610100565b508354156100f7565b606490602085519162461bcd60e51b83528201526016602482015275105c98d5985d5b1d0e881e995c9bc819195c1bdcda5d60521b6044820152fd5b5080fd5b50346100b05760203660031901126100b0579160209235906001548015801561023c575b15610221575050905b51908152f35b61022e9061023693610525565b90549061054e565b9061021b565b50815415610212565b50346100b05760203660031901126100b057356001600160a01b038116908190036100b057828291602094526002845220549051908152f35b5050346101ea57816003193601126101ea576020906001549051908152f35b50346100b05760203660031901126100b05760015460209391816102c45750509051908152f35b6102d49061023693549035610525565b61054e565b5050346101ea57816003193601126101ea57602091549051908152f35b509190346101ea57806003193601126101ea5760249283356001600160a01b038116918035918390036105215761032b610588565b81156104e757338552602095600287528285872054106104a55761035c610353875485610525565b6001549061054e565b953381526002885285812061037285825461056e565b90556103808460015461056e565b60015561038e87825461056e565b8155808080808a895af1903d1561049f5767ffffffffffffffff903d82811161048d57885192601f8201601f19908116603f011684019081118482101761047b5789528252893d92013e5b15610439575050825190848252858201527ff341246adaac6f497bc2a656f546ab9e182111d630394f0c57c710a59a2cb567833392a360017f9b779b17422d0df92223018b32b4d1fa46e071723d6817e2486d003becc55f005551908152f35b845162461bcd60e51b81529182018790526019908201527f4172635661756c743a207472616e73666572206661696c6564000000000000006044820152606490fd5b634e487b7160e01b8352604187528583fd5b634e487b7160e01b8252604186528482fd5b506103d9565b845162461bcd60e51b8152918201879052601d908201527f4172635661756c743a20696e73756666696369656e74207368617265730000006044820152606490fd5b606490601587602087519362461bcd60e51b8552840152820152744172635661756c743a207a65726f2073686172657360581b6044820152fd5b8480fd5b8181029291811591840414171561053857565b634e487b7160e01b600052601160045260246000fd5b8115610558570490565b634e487b7160e01b600052601260045260246000fd5b9190820391821161053857565b9190820180921161053857565b7f9b779b17422d0df92223018b32b4d1fa46e071723d6817e2486d003becc55f0060028154146105b85760029055565b604051633ee5aeb560e01b8152600490fdfea264697066735822122016ad27468ccec49e37d7e323494bc940246782020e20203383b5763eb585b8b264736f6c63430008180033",
  "linkReferences": {},
  "deployedLinkReferences": {}
}