{
  "_format": "hh-sol-artifact-1",
  "contractName": "ArcVault",
  "sourceName": "src_contracts/ArcVault.sol",
  "abi": [
    {
      "inputs": [
        {
          "internalType": "address",
          "name": "_registry",
          "type": "address"
        }
      ],
      "stateMutability": "nonpayable",
      "type": "constructor"
    },
    {
      "inputs": [],
      "name": "ReentrancyGuardReentrantCall",
      "type": "error"
    },
    {
      "anonymous": false,
      "inputs": [
        {
          "indexed": true,
          "internalType": "address",
          "name": "user",
          "type": "address"
        },
        {
          "indexed": true,
          "internalType": "address",
          "name": "agent",
          "type": "address"
        }
      ],
      "name": "AgentDelegated",
      "type": "event"
    },
    {
      "anonymous": false,
      "inputs": [
        {
          "indexed": true,
          "internalType": "address",
          "name": "owner",
          "type": "address"
        },
        {
          "indexed": false,
          "internalType": "uint256",
          "name": "assets",
          "type": "uint256"
        },
        {
          "indexed": false,
          "internalType": "uint256",
          "name": "shares",
          "type": "uint256"
        }
      ],
      "name": "Deposit",
      "type": "event"
    },
    {
      "anonymous": false,
      "inputs": [
        {
          "indexed": true,
          "internalType": "address",
          "name": "owner",
          "type": "address"
        },
        {
          "indexed": true,
          "internalType": "address",
          "name": "receiver",
          "type": "address"
        },
        {
          "indexed": false,
          "internalType": "uint256",
          "name": "assets",
          "type": "uint256"
        },
        {
          "indexed": false,
          "internalType": "uint256",
          "name": "shares",
          "type": "uint256"
        }
      ],
      "name": "Withdraw",
      "type": "event"
    },
    {
      "inputs": [],
      "name": "agentRegistry",
      "outputs": [
        {
          "internalType": "contract IAgentRegistry",
          "name": "",
          "type": "address"
        }
      ],
      "stateMutability": "view",
      "type": "function"
    },
    {
      "inputs": [
        {
          "internalType": "address",
          "name": "account",
          "type": "address"
        }
      ],
      "name": "balanceOf",
      "outputs": [
        {
          "internalType": "uint256",
          "name": "",
          "type": "uint256"
        }
      ],
      "stateMutability": "view",
      "type": "function"
    },
    {
      "inputs": [
        {
          "internalType": "address",
          "name": "agentWallet",
          "type": "address"
        }
      ],
      "name": "delegateToAgent",
      "outputs": [],
      "stateMutability": "nonpayable",
      "type": "function"
    },
    {
      "inputs": [
        {
          "internalType": "address",
          "name": "",
          "type": "address"
        }
      ],
      "name": "delegatedAgent",
      "outputs": [
        {
          "internalType": "address",
          "name": "",
          "type": "address"
        }
      ],
      "stateMutability": "view",
      "type": "function"
    },
    {
      "inputs": [
        {
          "internalType": "address",
          "name": "receiver",
          "type": "address"
        }
      ],
      "name": "deposit",
      "outputs": [
        {
          "internalType": "uint256",
          "name": "shares",
          "type": "uint256"
        }
      ],
      "stateMutability": "payable",
      "type": "function"
    },
    {
      "inputs": [
        {
          "internalType": "uint256",
          "name": "assets",
          "type": "uint256"
        }
      ],
      "name": "previewDeposit",
      "outputs": [
        {
          "internalType": "uint256",
          "name": "",
          "type": "uint256"
        }
      ],
      "stateMutability": "view",
      "type": "function"
    },
    {
      "inputs": [
        {
          "internalType": "uint256",
          "name": "shares",
          "type": "uint256"
        }
      ],
      "name": "previewWithdraw",
      "outputs": [
        {
          "internalType": "uint256",
          "name": "",
          "type": "uint256"
        }
      ],
      "stateMutability": "view",
      "type": "function"
    },
    {
      "inputs": [
        {
          "internalType": "address",
          "name": "",
          "type": "address"
        }
      ],
      "name": "sharesOf",
      "outputs": [
        {
          "internalType": "uint256",
          "name": "",
          "type": "uint256"
        }
      ],
      "stateMutability": "view",
      "type": "function"
    },
    {
      "inputs": [],
      "name": "totalAssets",
      "outputs": [
        {
          "internalType": "uint256",
          "name": "",
          "type": "uint256"
        }
      ],
      "stateMutability": "view",
      "type": "function"
    },
    {
      "inputs": [],
      "name": "totalShares",
      "outputs": [
        {
          "internalType": "uint256",
          "name": "",
          "type": "uint256"
        }
      ],
      "stateMutability": "view",
      "type": "function"
    },
    {
      "inputs": [
        {
          "internalType": "uint256",
          "name": "shares",
          "type": "uint256"
        },
        {
          "internalType": "address payable",
          "name": "receiver",
          "type": "address"
        }
      ],
      "name": "withdraw",
      "outputs": [
        {
          "internalType": "uint256",
          "name": "assets",
          "type": "uint256"
        }
      ],
      "stateMutability": "nonpayable",
      "type": "function"
    }
  ],
  "bytecode": "0x60803461009857601f61089d38819003918201601f19168301916001600160401b0383118484101761009d5780849260209460405283398101031261009857516001600160a01b038116908190036100985760017f9b779b17422d0df92223018b32b4d1fa46e071723d6817e2486d003becc55f0055600480546001600160a01b0319169190911790556040516107e990816100b48239f35b600080fd5b634e487b7160e01b600052604160045260246000fdfe6040608081526004908136101561001557600080fd5b600091823560e01c8062f714ce146104c757806301e1d114146104aa5780630a28a4771461046e5780630d1cfcae146104475780631522ab721461040b5780633a98ef39146103ec5780634dd218fd1461029f57806370a0823114610266578063ef8b30f71461020f578063f340fa01146100d55763f5eb42dc1461009957600080fd5b346100d15760203660031901126100d157356001600160a01b038116908190036100d157828291602094526002845220549051908152f35b8280fd5b508290602036600319011261020b5780356001600160a01b03811691908290036100d157610101610771565b34156101cf575091602092600154801580156101c6575b156101ab575034925b81815260028552828120610136858254610764565b905561014484600154610764565b600155610152348254610764565b90557f90890809c654f11d6e72a28fa60149770a0d11ec6c92319d6ceb2bb0a4ea1a158280513481528587820152a260017f9b779b17422d0df92223018b32b4d1fa46e071723d6817e2486d003becc55f005551908152f35b6101b86101c091346106d6565b8454906106ff565b92610121565b50835415610118565b606490602085519162461bcd60e51b83528201526016602482015275105c98d5985d5b1d0e881e995c9bc819195c1bdcda5d60521b6044820152fd5b5080fd5b50346100d15760203660031901126100d1579160209235906001548015801561025d575b15610242575050905b51908152f35b61024f90610257936106d6565b9054906106ff565b9061023c565b50815415610233565b50346100d15760203660031901126100d157356001600160a01b038116908190036100d157828291602094526002845220549051908152f35b5090346100d1576020806003193601126103e85782356001600160a01b0381811694918590036103d35784610319575b5050600390338552528220816bffffffffffffffffffffffff60a01b825416179055337fe2de29c8a98e75e2ba7a1624fa9acd57bb7f4420a48e94b6399a60a41275f2bd8380a380f35b826024918354168551928380926343024fe160e11b825289878301525afa9081156103de5786916103a4575b501561035157806102cf565b915162461bcd60e51b815291820152602960248201527f4172635661756c743a204167656e74206e6f742072656769737465726564206f604482015268072206c6f77207265760bc1b6064820152608490fd5b90508281813d83116103d7575b6103bb818361072c565b810103126103d3575180151581036103d35738610345565b8580fd5b503d6103b1565b84513d88823e3d90fd5b8380fd5b50503461020b578160031936011261020b576020906001549051908152f35b50346100d15760203660031901126100d1576001600160a01b039035818116908190036103e85783839160209552600385522054169051908152f35b50346100d157826003193601126100d1575490516001600160a01b03909116815260209150f35b50346100d15760203660031901126100d15760015460209391816104955750509051908152f35b6104a590610257935490356106d6565b6106ff565b50503461020b578160031936011261020b57602091549051908152f35b5091903461020b578060031936011261020b576024356001600160a01b038116908435908290036103e8576104fa610771565b801561069b57338452602094600286528184862054106106585761052b6105228654846106d6565b600154906106ff565b943381526002875284812061054184825461071f565b905561054f8360015461071f565b60015561055d86825461071f565b81558080808089885af1903d15610652573d9067ffffffffffffffff821161063f57865191610595601f8201601f19168b018461072c565b8252883d92013e5b156105fc5750825190848252858201527ff341246adaac6f497bc2a656f546ab9e182111d630394f0c57c710a59a2cb567833392a360017f9b779b17422d0df92223018b32b4d1fa46e071723d6817e2486d003becc55f005551908152f35b835162461bcd60e51b8152908101869052601960248201527f4172635661756c743a207472616e73666572206661696c6564000000000000006044820152606490fd5b634e487b7160e01b815260418452602490fd5b5061059d565b835162461bcd60e51b8152908101869052601d60248201527f4172635661756c743a20696e73756666696369656e74207368617265730000006044820152606490fd5b825162461bcd60e51b815260208187015260156024820152744172635661756c743a207a65726f2073686172657360581b6044820152606490fd5b818102929181159184041417156106e957565b634e487b7160e01b600052601160045260246000fd5b8115610709570490565b634e487b7160e01b600052601260045260246000fd5b919082039182116106e957565b90601f8019910116810190811067ffffffffffffffff82111761074e57604052565b634e487b7160e01b600052604160045260246000fd5b919082018092116106e957565b7f9b779b17422d0df92223018b32b4d1fa46e071723d6817e2486d003becc55f0060028154146107a15760029055565b604051633ee5aeb560e01b8152600490fdfea2646970667358221220293d593d8212f03f1df3e34b1a833f59ea091544cfeb1c35b8b31dbefb325e8b64736f6c63430008180033",
  "linkReferences": {},
  "deployedLinkReferences": {}
}