{
  "_format": "hh-sol-artifact-1",
  "contractName": "ArcVaultHook",
  "sourceName": "src_contracts/ArcVaultHook.sol",
  "abi": [
    {
      "inputs": [
        {
          "internalType": "contract IPoolManager",
          "name": "_poolManager",
          "type": "address"
        },
        {
          "internalType": "address",
          "name": "_registry",
          "type": "address"
        }
      ],
      "stateMutability": "nonpayable",
      "type": "constructor"
    },
    {
      "inputs": [],
      "name": "HookNotImplemented",
      "type": "error"
    },
    {
      "inputs": [],
      "name": "InvalidAgent",
      "type": "error"
    },
    {
      "inputs": [],
      "name": "NotPoolManager",
      "type": "error"
    },
    {
      "inputs": [],
      "name": "NotVIP",
      "type": "error"
    },
    {
      "anonymous": false,
      "inputs": [
        {
          "indexed": true,
          "internalType": "address",
          "name": "agent",
          "type": "address"
        },
        {
          "indexed": false,
          "internalType": "uint256",
          "name": "timestamp",
          "type": "uint256"
        },
        {
          "indexed": false,
          "internalType": "int256",
          "name": "amount",
          "type": "int256"
        }
      ],
      "name": "AIRebalanced",
      "type": "event"
    },
    {
      "inputs": [
        {
          "internalType": "address",
          "name": "sender",
          "type": "address"
        },
        {
          "components": [
            {
              "internalType": "Currency",
              "name": "currency0",
              "type": "address"
            },
            {
              "internalType": "Currency",
              "name": "currency1",
              "type": "address"
            },
            {
              "internalType": "uint24",
              "name": "fee",
              "type": "uint24"
            },
            {
              "internalType": "int24",
              "name": "tickSpacing",
              "type": "int24"
            },
            {
              "internalType": "contract IHooks",
              "name": "hooks",
              "type": "address"
            }
          ],
          "internalType": "struct PoolKey",
          "name": "key",
          "type": "tuple"
        },
        {
          "components": [
            {
              "internalType": "int24",
              "name": "tickLower",
              "type": "int24"
            },
            {
              "internalType": "int24",
              "name": "tickUpper",
              "type": "int24"
            },
            {
              "internalType": "int256",
              "name": "liquidityDelta",
              "type": "int256"
            },
            {
              "internalType": "bytes32",
              "name": "salt",
              "type": "bytes32"
            }
          ],
          "internalType": "struct ModifyLiquidityParams",
          "name": "params",
          "type": "tuple"
        },
        {
          "internalType": "BalanceDelta",
          "name": "delta",
          "type": "int256"
        },
        {
          "internalType": "BalanceDelta",
          "name": "feesAccrued",
          "type": "int256"
        },
        {
          "internalType": "bytes",
          "name": "hookData",
          "type": "bytes"
        }
      ],
      "name": "afterAddLiquidity",
      "outputs": [
        {
          "internalType": "bytes4",
          "name": "",
          "type": "bytes4"
        },
        {
          "internalType": "BalanceDelta",
          "name": "",
          "type": "int256"
        }
      ],
      "stateMutability": "nonpayable",
      "type": "function"
    },
    {
      "inputs": [
        {
          "internalType": "address",
          "name": "sender",
          "type": "address"
        },
        {
          "components": [
            {
              "internalType": "Currency",
              "name": "currency0",
              "type": "address"
            },
            {
              "internalType": "Currency",
              "name": "currency1",
              "type": "address"
            },
            {
              "internalType": "uint24",
              "name": "fee",
              "type": "uint24"
            },
            {
              "internalType": "int24",
              "name": "tickSpacing",
              "type": "int24"
            },
            {
              "internalType": "contract IHooks",
              "name": "hooks",
              "type": "address"
            }
          ],
          "internalType": "struct PoolKey",
          "name": "key",
          "type": "tuple"
        },
        {
          "internalType": "uint256",
          "name": "amount0",
          "type": "uint256"
        },
        {
          "internalType": "uint256",
          "name": "amount1",
          "type": "uint256"
        },
        {
          "internalType": "bytes",
          "name": "hookData",
          "type": "bytes"
        }
      ],
      "name": "afterDonate",
      "outputs": [
        {
          "internalType": "bytes4",
          "name": "",
          "type": "bytes4"
        }
      ],
      "stateMutability": "nonpayable",
      "type": "function"
    },
    {
      "inputs": [
        {
          "internalType": "address",
          "name": "sender",
          "type": "address"
        },
        {
          "components": [
            {
              "internalType": "Currency",
              "name": "currency0",
              "type": "address"
            },
            {
              "internalType": "Currency",
              "name": "currency1",
              "type": "address"
            },
            {
              "internalType": "uint24",
              "name": "fee",
              "type": "uint24"
            },
            {
              "internalType": "int24",
              "name": "tickSpacing",
              "type": "int24"
            },
            {
              "internalType": "contract IHooks",
              "name": "hooks",
              "type": "address"
            }
          ],
          "internalType": "struct PoolKey",
          "name": "key",
          "type": "tuple"
        },
        {
          "internalType": "uint160",
          "name": "sqrtPriceX96",
          "type": "uint160"
        },
        {
          "internalType": "int24",
          "name": "tick",
          "type": "int24"
        }
      ],
      "name": "afterInitialize",
      "outputs": [
        {
          "internalType": "bytes4",
          "name": "",
          "type": "bytes4"
        }
      ],
      "stateMutability": "nonpayable",
      "type": "function"
    },
    {
      "inputs": [
        {
          "internalType": "address",
          "name": "sender",
          "type": "address"
        },
        {
          "components": [
            {
              "internalType": "Currency",
              "name": "currency0",
              "type": "address"
            },
            {
              "internalType": "Currency",
              "name": "currency1",
              "type": "address"
            },
            {
              "internalType": "uint24",
              "name": "fee",
              "type": "uint24"
            },
            {
              "internalType": "int24",
              "name": "tickSpacing",
              "type": "int24"
            },
            {
              "internalType": "contract IHooks",
              "name": "hooks",
              "type": "address"
            }
          ],
          "internalType": "struct PoolKey",
          "name": "key",
          "type": "tuple"
        },
        {
          "components": [
            {
              "internalType": "int24",
              "name": "tickLower",
              "type": "int24"
            },
            {
              "internalType": "int24",
              "name": "tickUpper",
              "type": "int24"
            },
            {
              "internalType": "int256",
              "name": "liquidityDelta",
              "type": "int256"
            },
            {
              "internalType": "bytes32",
              "name": "salt",
              "type": "bytes32"
            }
          ],
          "internalType": "struct ModifyLiquidityParams",
          "name": "params",
          "type": "tuple"
        },
        {
          "internalType": "BalanceDelta",
          "name": "delta",
          "type": "int256"
        },
        {
          "internalType": "BalanceDelta",
          "name": "feesAccrued",
          "type": "int256"
        },
        {
          "internalType": "bytes",
          "name": "hookData",
          "type": "bytes"
        }
      ],
      "name": "afterRemoveLiquidity",
      "outputs": [
        {
          "internalType": "bytes4",
          "name": "",
          "type": "bytes4"
        },
        {
          "internalType": "BalanceDelta",
          "name": "",
          "type": "int256"
        }
      ],
      "stateMutability": "nonpayable",
      "type": "function"
    },
    {
      "inputs": [
        {
          "internalType": "address",
          "name": "sender",
          "type": "address"
        },
        {
          "components": [
            {
              "internalType": "Currency",
              "name": "currency0",
              "type": "address"
            },
            {
              "internalType": "Currency",
              "name": "currency1",
              "type": "address"
            },
            {
              "internalType": "uint24",
              "name": "fee",
              "type": "uint24"
            },
            {
              "internalType": "int24",
              "name": "tickSpacing",
              "type": "int24"
            },
            {
              "internalType": "contract IHooks",
              "name": "hooks",
              "type": "address"
            }
          ],
          "internalType": "struct PoolKey",
          "name": "key",
          "type": "tuple"
        },
        {
          "components": [
            {
              "internalType": "bool",
              "name": "zeroForOne",
              "type": "bool"
            },
            {
              "internalType": "int256",
              "name": "amountSpecified",
              "type": "int256"
            },
            {
              "internalType": "uint160",
              "name": "sqrtPriceLimitX96",
              "type": "uint160"
            }
          ],
          "internalType": "struct SwapParams",
          "name": "params",
          "type": "tuple"
        },
        {
          "internalType": "BalanceDelta",
          "name": "delta",
          "type": "int256"
        },
        {
          "internalType": "bytes",
          "name": "hookData",
          "type": "bytes"
        }
      ],
      "name": "afterSwap",
      "outputs": [
        {
          "internalType": "bytes4",
          "name": "",
          "type": "bytes4"
        },
        {
          "internalType": "int128",
          "name": "",
          "type": "int128"
        }
      ],
      "stateMutability": "nonpayable",
      "type": "function"
    },
    {
      "inputs": [],
      "name": "agentRegistry",
      "outputs": [
        {
          "internalType": "contract IAgentRegistry",
          "name": "",
          "type": "address"
        }
      ],
      "stateMutability": "view",
      "type": "function"
    },
    {
      "inputs": [],
      "name": "baseFee",
      "outputs": [
        {
          "internalType": "uint24",
          "name": "",
          "type": "uint24"
        }
      ],
      "stateMutability": "view",
      "type": "function"
    },
    {
      "inputs": [
        {
          "internalType": "address",
          "name": "sender",
          "type": "address"
        },
        {
          "components": [
            {
              "internalType": "Currency",
              "name": "currency0",
              "type": "address"
            },
            {
              "internalType": "Currency",
              "name": "currency1",
              "type": "address"
            },
            {
              "internalType": "uint24",
              "name": "fee",
              "type": "uint24"
            },
            {
              "internalType": "int24",
              "name": "tickSpacing",
              "type": "int24"
            },
            {
              "internalType": "contract IHooks",
              "name": "hooks",
              "type": "address"
            }
          ],
          "internalType": "struct PoolKey",
          "name": "key",
          "type": "tuple"
        },
        {
          "components": [
            {
              "internalType": "int24",
              "name": "tickLower",
              "type": "int24"
            },
            {
              "internalType": "int24",
              "name": "tickUpper",
              "type": "int24"
            },
            {
              "internalType": "int256",
              "name": "liquidityDelta",
              "type": "int256"
            },
            {
              "internalType": "bytes32",
              "name": "salt",
              "type": "bytes32"
            }
          ],
          "internalType": "struct ModifyLiquidityParams",
          "name": "params",
          "type": "tuple"
        },
        {
          "internalType": "bytes",
          "name": "hookData",
          "type": "bytes"
        }
      ],
      "name": "beforeAddLiquidity",
      "outputs": [
        {
          "internalType": "bytes4",
          "name": "",
          "type": "bytes4"
        }
      ],
      "stateMutability": "nonpayable",
      "type": "function"
    },
    {
      "inputs": [
        {
          "internalType": "address",
          "name": "sender",
          "type": "address"
        },
        {
          "components": [
            {
              "internalType": "Currency",
              "name": "currency0",
              "type": "address"
            },
            {
              "internalType": "Currency",
              "name": "currency1",
              "type": "address"
            },
            {
              "internalType": "uint24",
              "name": "fee",
              "type": "uint24"
            },
            {
              "internalType": "int24",
              "name": "tickSpacing",
              "type": "int24"
            },
            {
              "internalType": "contract IHooks",
              "name": "hooks",
              "type": "address"
            }
          ],
          "internalType": "struct PoolKey",
          "name": "key",
          "type": "tuple"
        },
        {
          "internalType": "uint256",
          "name": "amount0",
          "type": "uint256"
        },
        {
          "internalType": "uint256",
          "name": "amount1",
          "type": "uint256"
        },
        {
          "internalType": "bytes",
          "name": "hookData",
          "type": "bytes"
        }
      ],
      "name": "beforeDonate",
      "outputs": [
        {
          "internalType": "bytes4",
          "name": "",
          "type": "bytes4"
        }
      ],
      "stateMutability": "nonpayable",
      "type": "function"
    },
    {
      "inputs": [
        {
          "internalType": "address",
          "name": "sender",
          "type": "address"
        },
        {
          "components": [
            {
              "internalType": "Currency",
              "name": "currency0",
              "type": "address"
            },
            {
              "internalType": "Currency",
              "name": "currency1",
              "type": "address"
            },
            {
              "internalType": "uint24",
              "name": "fee",
              "type": "uint24"
            },
            {
              "internalType": "int24",
              "name": "tickSpacing",
              "type": "int24"
            },
            {
              "internalType": "contract IHooks",
              "name": "hooks",
              "type": "address"
            }
          ],
          "internalType": "struct PoolKey",
          "name": "key",
          "type": "tuple"
        },
        {
          "internalType": "uint160",
          "name": "sqrtPriceX96",
          "type": "uint160"
        }
      ],
      "name": "beforeInitialize",
      "outputs": [
        {
          "internalType": "bytes4",
          "name": "",
          "type": "bytes4"
        }
      ],
      "stateMutability": "nonpayable",
      "type": "function"
    },
    {
      "inputs": [
        {
          "internalType": "address",
          "name": "sender",
          "type": "address"
        },
        {
          "components": [
            {
              "internalType": "Currency",
              "name": "currency0",
              "type": "address"
            },
            {
              "internalType": "Currency",
              "name": "currency1",
              "type": "address"
            },
            {
              "internalType": "uint24",
              "name": "fee",
              "type": "uint24"
            },
            {
              "internalType": "int24",
              "name": "tickSpacing",
              "type": "int24"
            },
            {
              "internalType": "contract IHooks",
              "name": "hooks",
              "type": "address"
            }
          ],
          "internalType": "struct PoolKey",
          "name": "key",
          "type": "tuple"
        },
        {
          "components": [
            {
              "internalType": "int24",
              "name": "tickLower",
              "type": "int24"
            },
            {
              "internalType": "int24",
              "name": "tickUpper",
              "type": "int24"
            },
            {
              "internalType": "int256",
              "name": "liquidityDelta",
              "type": "int256"
            },
            {
              "internalType": "bytes32",
              "name": "salt",
              "type": "bytes32"
            }
          ],
          "internalType": "struct ModifyLiquidityParams",
          "name": "params",
          "type": "tuple"
        },
        {
          "internalType": "bytes",
          "name": "hookData",
          "type": "bytes"
        }
      ],
      "name": "beforeRemoveLiquidity",
      "outputs": [
        {
          "internalType": "bytes4",
          "name": "",
          "type": "bytes4"
        }
      ],
      "stateMutability": "nonpayable",
      "type": "function"
    },
    {
      "inputs": [
        {
          "internalType": "address",
          "name": "sender",
          "type": "address"
        },
        {
          "components": [
            {
              "internalType": "Currency",
              "name": "currency0",
              "type": "address"
            },
            {
              "internalType": "Currency",
              "name": "currency1",
              "type": "address"
            },
            {
              "internalType": "uint24",
              "name": "fee",
              "type": "uint24"
            },
            {
              "internalType": "int24",
              "name": "tickSpacing",
              "type": "int24"
            },
            {
              "internalType": "contract IHooks",
              "name": "hooks",
              "type": "address"
            }
          ],
          "internalType": "struct PoolKey",
          "name": "key",
          "type": "tuple"
        },
        {
          "components": [
            {
              "internalType": "bool",
              "name": "zeroForOne",
              "type": "bool"
            },
            {
              "internalType": "int256",
              "name": "amountSpecified",
              "type": "int256"
            },
            {
              "internalType": "uint160",
              "name": "sqrtPriceLimitX96",
              "type": "uint160"
            }
          ],
          "internalType": "struct SwapParams",
          "name": "params",
          "type": "tuple"
        },
        {
          "internalType": "bytes",
          "name": "hookData",
          "type": "bytes"
        }
      ],
      "name": "beforeSwap",
      "outputs": [
        {
          "internalType": "bytes4",
          "name": "",
          "type": "bytes4"
        },
        {
          "internalType": "BeforeSwapDelta",
          "name": "",
          "type": "int256"
        },
        {
          "internalType": "uint24",
          "name": "",
          "type": "uint24"
        }
      ],
      "stateMutability": "nonpayable",
      "type": "function"
    },
    {
      "inputs": [
        {
          "components": [
            {
              "internalType": "Currency",
              "name": "currency0",
              "type": "address"
            },
            {
              "internalType": "Currency",
              "name": "currency1",
              "type": "address"
            },
            {
              "internalType": "uint24",
              "name": "fee",
              "type": "uint24"
            },
            {
              "internalType": "int24",
              "name": "tickSpacing",
              "type": "int24"
            },
            {
              "internalType": "contract IHooks",
              "name": "hooks",
              "type": "address"
            }
          ],
          "internalType": "struct PoolKey",
          "name": "key",
          "type": "tuple"
        },
        {
          "internalType": "int256",
          "name": "amountToRebalance",
          "type": "int256"
        },
        {
          "internalType": "bool",
          "name": "simulatedSuccess",
          "type": "bool"
        }
      ],
      "name": "executeAIRebalance",
      "outputs": [],
      "stateMutability": "nonpayable",
      "type": "function"
    },
    {
      "inputs": [],
      "name": "getHookPermissions",
      "outputs": [
        {
          "components": [
            {
              "internalType": "bool",
              "name": "beforeInitialize",
              "type": "bool"
            },
            {
              "internalType": "bool",
              "name": "afterInitialize",
              "type": "bool"
            },
            {
              "internalType": "bool",
              "name": "beforeAddLiquidity",
              "type": "bool"
            },
            {
              "internalType": "bool",
              "name": "afterAddLiquidity",
              "type": "bool"
            },
            {
              "internalType": "bool",
              "name": "beforeRemoveLiquidity",
              "type": "bool"
            },
            {
              "internalType": "bool",
              "name": "afterRemoveLiquidity",
              "type": "bool"
            },
            {
              "internalType": "bool",
              "name": "beforeSwap",
              "type": "bool"
            },
            {
              "internalType": "bool",
              "name": "afterSwap",
              "type": "bool"
            },
            {
              "internalType": "bool",
              "name": "beforeDonate",
              "type": "bool"
            },
            {
              "internalType": "bool",
              "name": "afterDonate",
              "type": "bool"
            },
            {
              "internalType": "bool",
              "name": "beforeSwapReturnDelta",
              "type": "bool"
            },
            {
              "internalType": "bool",
              "name": "afterSwapReturnDelta",
              "type": "bool"
            },
            {
              "internalType": "bool",
              "name": "afterAddLiquidityReturnDelta",
              "type": "bool"
            },
            {
              "internalType": "bool",
              "name": "afterRemoveLiquidityReturnDelta",
              "type": "bool"
            }
          ],
          "internalType": "struct Hooks.Permissions",
          "name": "",
          "type": "tuple"
        }
      ],
      "stateMutability": "pure",
      "type": "function"
    },
    {
      "inputs": [
        {
          "internalType": "address",
          "name": "",
          "type": "address"
        }
      ],
      "name": "isVIP",
      "outputs": [
        {
          "internalType": "bool",
          "name": "",
          "type": "bool"
        }
      ],
      "stateMutability": "view",
      "type": "function"
    },
    {
      "inputs": [],
      "name": "lastRebalanceTime",
      "outputs": [
        {
          "internalType": "uint256",
          "name": "",
          "type": "uint256"
        }
      ],
      "stateMutability": "view",
      "type": "function"
    },
    {
      "inputs": [],
      "name": "poolManager",
      "outputs": [
        {
          "internalType": "contract IPoolManager",
          "name": "",
          "type": "address"
        }
      ],
      "stateMutability": "view",
      "type": "function"
    },
    {
      "inputs": [
        {
          "internalType": "address",
          "name": "user",
          "type": "address"
        },
        {
          "internalType": "bool",
          "name": "status",
          "type": "bool"
        }
      ],
      "name": "setVIPStatus",
      "outputs": [],
      "stateMutability": "nonpayable",
      "type": "function"
    },
    {
      "inputs": [
        {
          "components": [
            {
              "internalType": "Currency",
              "name": "currency0",
              "type": "address"
            },
            {
              "internalType": "Currency",
              "name": "currency1",
              "type": "address"
            },
            {
              "internalType": "uint24",
              "name": "fee",
              "type": "uint24"
            },
            {
              "internalType": "int24",
              "name": "tickSpacing",
              "type": "int24"
            },
            {
              "internalType": "contract IHooks",
              "name": "hooks",
              "type": "address"
            }
          ],
          "internalType": "struct PoolKey",
          "name": "key",
          "type": "tuple"
        },
        {
          "internalType": "uint256",
          "name": "newVol",
          "type": "uint256"
        }
      ],
      "name": "updateVolatility",
      "outputs": [],
      "stateMutability": "nonpayable",
      "type": "function"
    },
    {
      "inputs": [
        {
          "internalType": "PoolId",
          "name": "",
          "type": "bytes32"
        }
      ],
      "name": "volatilityIndex",
      "outputs": [
        {
          "internalType": "uint256",
          "name": "",
          "type": "uint256"
        }
      ],
      "stateMutability": "view",
      "type": "function"
    }
  ],
  "bytecode": "0x60a034620002d8576200103490601f38839003908101601f19168201906001600160401b03821183831017620002dd5780839160409586948552833981010312620002d8578051906001600160a01b03908183168303620002d85760200151908116809103620002d857829160805262000078620002f3565b60009081815281602082015281848201528160608201528160808201528160a08201528160c08201528160e082015281610100918183820152610120828183015282610140818185015281610160818187015281610180938185890152816101a08099015281620000e8620002f3565b978189528160208a015260019e8f80918b01528260608b01528260808b01528260a08b015260c08a01528160e08a0152818c8a0152880152860152840152820152015261200030161590811591620002c9575b8115620002b7575b8115620002a8575b811562000299575b81156200028c575b5080156200027c575b801562000270575b801562000263575b801562000256575b801562000249575b80156200023c575b80156200022f575b801562000223575b6200021057506003805462ffffff1916610bb817905581546001600160a01b03191617905551610d1f9081620003158239608051818181610155015281816101d90152818161022c0152818161045c0152818161055401528181610600015281816108a001528181610a1d0152610aa00152f35b630732d7b560e51b815230600452602490fd5b5082301615156200019c565b5060023016151562000194565b506004301615156200018c565b5060083016151562000184565b506010301615156200017c565b5060203016151562000174565b5083301615156200016c565b5060803016151583141562000164565b905030161515386200015b565b30610200161515915062000153565b3061040016151591506200014b565b30610800161515851415915062000143565b3061100016151591506200013b565b600080fd5b634e487b7160e01b600052604160045260246000fd5b604051906101c082016001600160401b03811183821017620002dd5760405256fe6080806040526004908136101561001557600080fd5b600091823560e01c9182630d1cfcae14610ae15750816321d0ee7014610a8b578163259982e5146109fe5781633340a433146109b4578163575e24b41461083f5781635fe88be1146106605781636c2bbe7e1461053f5781636ef25c3a1461063d5781636fe7e6eb146105c057816393989711146105975781639f063efc1461053f578163a2b732b514610499578163b47b2fb114610402578163b6a8b0fa14610140578163c4e833ce14610279578163d9ca21d51461025b578163dc4c90d314610216578163dc98354e146101a6578163e1b4af6914610140575063f4201c3c1461010057600080fd5b3461013d57602036600319011261013d5760209060ff906040906001600160a01b0361012a610b06565b1681528084522054166040519015158152f35b80fd5b823461013d575061015036610c2e565b5050507f00000000000000000000000000000000000000000000000000000000000000006001600160a01b03163303925061019791505057604051630a85dc2960e01b8152fd5b60405163570c108560e11b8152fd5b823461013d5760e036600319011261013d576101c0610b06565b5060a036602319011261013d57506101d6610c18565b507f00000000000000000000000000000000000000000000000000000000000000006001600160a01b0316330361019757604051630a85dc2960e01b8152fd5b823461013d578060031936011261013d576040517f00000000000000000000000000000000000000000000000000000000000000006001600160a01b03168152602090f35b823461013d578060031936011261013d576020600254604051908152f35b823461013d578060031936011261013d57806101c0916101a060405161029e81610cb0565b8281528260208201528260408201528260608201528260808201528260a08201528260c08201528260e0820152826101008201528261012082015282610140820152826101608201528261018082015201526101a06040516102ff81610cb0565b828152826020820152600160408201528260608201528260808201528260a0820152600160c08201528260e08201528261010082015282610120820152826101408201528261016082015282610180820152828282015260405192835260208101511515602084015260408101511515604084015260608101511515606084015260808101511515608084015260a0810151151560a084015260c0810151151560c084015260e0810151151560e084015261010081015115156101008401526101208101511515610120840152610140810151151561014084015261016081015115156101608401526101808101511515610180840152015115156101a0820152f35b823461013d5761016036600319011261013d5761041d610b06565b5060a036602319011261013d5760603660c319011261013d57610144359067ffffffffffffffff821161013d57506104589036908301610b1c565b50507f00000000000000000000000000000000000000000000000000000000000000006001600160a01b0316330361019757604051630a85dc2960e01b8152fd5b90503461053757366003190160c0811261053b5760a013610537576040516104c081610ccd565b6001600160a01b039082358281168103610532578152602435828116810361053257602082015260443562ffffff811681036105325760408201526064358060020b810361053257606082015260843591821682036105325760a091608082015220825260205260a435604082205580f35b600080fd5b5080fd5b8280fd5b823461013d575061054f36610bae565b5050507f00000000000000000000000000000000000000000000000000000000000000006001600160a01b0316330393506101979250505057604051630a85dc2960e01b8152fd5b905034610537576020366003190112610537576020918160409235825283522054604051908152f35b823461013d5761010036600319011261013d576105db610b06565b5060a036602319011261013d57506105f1610c18565b5060e4358060020b03610532577f00000000000000000000000000000000000000000000000000000000000000006001600160a01b0316330361019757604051630a85dc2960e01b8152fd5b823461013d578060031936011261013d57602062ffffff60035416604051908152f35b823461013d57366003190160e081126105375760a01361013d5760c435918215158303610537576001546040516343024fe160e11b815233838201526001600160a01b0391821690602081602481855afa9081156108345785916107cc575b50156107bb5783944260025560001461076d57506001541690813b15610769578291604483926040519485938492636a08b51160e01b84523390840152600560248401525af1801561075e5761074a575b50505b60405142815260a43560208201527f3a3049f497989f246ccacf70be725126b9811549d29c7c2bf379765a0db98adf60403392a280f35b61075390610c86565b61013d578082610710565b6040513d84823e3d90fd5b5050fd5b8091503b1561076957604483926040519485938492636a08b51160e01b8452339084015260091960248401525af1801561075e576107ac575b50610713565b6107b590610c86565b816107a6565b60405163bebdc75760e01b81528390fd5b905060203d60201161082d575b601f8101601f1916820167ffffffffffffffff81118382101761081a576020918391604052810103126108165751801515810361081657866106bf565b8480fd5b634e487b7160e01b875260418652602487fd5b503d6107d9565b6040513d87823e3d90fd5b823461013d5761014036600319011261013d5761085a610b06565b5060a036602319011261013d5760603660c319011261013d576101243567ffffffffffffffff8111610537576108939036908401610b1c565b506001600160a01b0390507f0000000000000000000000000000000000000000000000000000000000000000811633036109a3576040516108d381610ccd565b602435828116810361099f578152604435828116810361099f57602082015262ffffff9160643583811681036108165760408301526084358060020b810361081657606083015260a435908116810361099f579060a0916080820152208252826020526040822054816003541690600a810290808204600a149015171561098c578216011161097a57606090604051906315d7892d60e21b82528060208301526040820152f35b6011602492634e487b7160e01b835252fd5b634e487b7160e01b845260118552602484fd5b8380fd5b60405163570c108560e11b81528390fd5b823461013d57604036600319011261013d576109ce610b06565b6024359081151580920361053b5760018060a01b0316825281602052604082209060ff8019835416911617905580f35b823461013d57610a0d36610b4a565b506001600160a01b0394925050507f000000000000000000000000000000000000000000000000000000000000000083163303610a7a5760ff926040921681528060205220541615610a6b5760405163259982e560e01b8152602090f35b604051631fcdf12d60e21b8152fd5b60405163570c108560e11b81528490fd5b823461013d5750610a9b36610b4a565b5050507f00000000000000000000000000000000000000000000000000000000000000006001600160a01b031633039150610197905057604051630a85dc2960e01b8152fd5b8390346105375781600319360112610537576001546001600160a01b03168152602090f35b600435906001600160a01b038216820361053257565b9181601f840112156105325782359167ffffffffffffffff8311610532576020838186019501011161053257565b90610160600319830112610532576004356001600160a01b0381168103610532579160a060231982011261053257602491608060c3198301126105325760c491610144359067ffffffffffffffff821161053257610baa91600401610b1c565b9091565b906101a0600319830112610532576004356001600160a01b0381168103610532579160a060231982011261053257602491608060c3198301126105325760c49161014435916101643591610184359067ffffffffffffffff821161053257610baa91600401610b1c565b60c435906001600160a01b038216820361053257565b610120600319820112610532576004356001600160a01b0381168103610532579160a06023198301126105325760249160c4359160e43591610104359067ffffffffffffffff821161053257610baa91600401610b1c565b67ffffffffffffffff8111610c9a57604052565b634e487b7160e01b600052604160045260246000fd5b6101c0810190811067ffffffffffffffff821117610c9a57604052565b60a0810190811067ffffffffffffffff821117610c9a5760405256fea26469706673582212202fd193fb074e9b62c86e1fadbee8e1bfe6e3f7b5cb4365117fa826dce65a353d64736f6c63430008180033",
  "linkReferences": {},
  "deployedLinkReferences": {}
}