{
  "_format": "hh-sol-artifact-1",
  "contractName": "ArcVaultHook",
  "sourceName": "src_contracts/ArcVaultHook.sol",
  "abi": [
    {
      "inputs": [
        {
          "internalType": "contract IPoolManager",
          "name": "_poolManager",
          "type": "address"
        },
        {
          "internalType": "address",
          "name": "_aiAgent",
          "type": "address"
        }
      ],
      "stateMutability": "nonpayable",
      "type": "constructor"
    },
    {
      "inputs": [],
      "name": "HookNotImplemented",
      "type": "error"
    },
    {
      "inputs": [],
      "name": "NotPoolManager",
      "type": "error"
    },
    {
      "inputs": [],
      "name": "NotVIP",
      "type": "error"
    },
    {
      "inputs": [],
      "name": "OnlyAIAgent",
      "type": "error"
    },
    {
      "inputs": [
        {
          "internalType": "address",
          "name": "sender",
          "type": "address"
        },
        {
          "components": [
            {
              "internalType": "Currency",
              "name": "currency0",
              "type": "address"
            },
            {
              "internalType": "Currency",
              "name": "currency1",
              "type": "address"
            },
            {
              "internalType": "uint24",
              "name": "fee",
              "type": "uint24"
            },
            {
              "internalType": "int24",
              "name": "tickSpacing",
              "type": "int24"
            },
            {
              "internalType": "contract IHooks",
              "name": "hooks",
              "type": "address"
            }
          ],
          "internalType": "struct PoolKey",
          "name": "key",
          "type": "tuple"
        },
        {
          "components": [
            {
              "internalType": "int24",
              "name": "tickLower",
              "type": "int24"
            },
            {
              "internalType": "int24",
              "name": "tickUpper",
              "type": "int24"
            },
            {
              "internalType": "int256",
              "name": "liquidityDelta",
              "type": "int256"
            },
            {
              "internalType": "bytes32",
              "name": "salt",
              "type": "bytes32"
            }
          ],
          "internalType": "struct ModifyLiquidityParams",
          "name": "params",
          "type": "tuple"
        },
        {
          "internalType": "BalanceDelta",
          "name": "delta",
          "type": "int256"
        },
        {
          "internalType": "BalanceDelta",
          "name": "feesAccrued",
          "type": "int256"
        },
        {
          "internalType": "bytes",
          "name": "hookData",
          "type": "bytes"
        }
      ],
      "name": "afterAddLiquidity",
      "outputs": [
        {
          "internalType": "bytes4",
          "name": "",
          "type": "bytes4"
        },
        {
          "internalType": "BalanceDelta",
          "name": "",
          "type": "int256"
        }
      ],
      "stateMutability": "nonpayable",
      "type": "function"
    },
    {
      "inputs": [
        {
          "internalType": "address",
          "name": "sender",
          "type": "address"
        },
        {
          "components": [
            {
              "internalType": "Currency",
              "name": "currency0",
              "type": "address"
            },
            {
              "internalType": "Currency",
              "name": "currency1",
              "type": "address"
            },
            {
              "internalType": "uint24",
              "name": "fee",
              "type": "uint24"
            },
            {
              "internalType": "int24",
              "name": "tickSpacing",
              "type": "int24"
            },
            {
              "internalType": "contract IHooks",
              "name": "hooks",
              "type": "address"
            }
          ],
          "internalType": "struct PoolKey",
          "name": "key",
          "type": "tuple"
        },
        {
          "internalType": "uint256",
          "name": "amount0",
          "type": "uint256"
        },
        {
          "internalType": "uint256",
          "name": "amount1",
          "type": "uint256"
        },
        {
          "internalType": "bytes",
          "name": "hookData",
          "type": "bytes"
        }
      ],
      "name": "afterDonate",
      "outputs": [
        {
          "internalType": "bytes4",
          "name": "",
          "type": "bytes4"
        }
      ],
      "stateMutability": "nonpayable",
      "type": "function"
    },
    {
      "inputs": [
        {
          "internalType": "address",
          "name": "sender",
          "type": "address"
        },
        {
          "components": [
            {
              "internalType": "Currency",
              "name": "currency0",
              "type": "address"
            },
            {
              "internalType": "Currency",
              "name": "currency1",
              "type": "address"
            },
            {
              "internalType": "uint24",
              "name": "fee",
              "type": "uint24"
            },
            {
              "internalType": "int24",
              "name": "tickSpacing",
              "type": "int24"
            },
            {
              "internalType": "contract IHooks",
              "name": "hooks",
              "type": "address"
            }
          ],
          "internalType": "struct PoolKey",
          "name": "key",
          "type": "tuple"
        },
        {
          "internalType": "uint160",
          "name": "sqrtPriceX96",
          "type": "uint160"
        },
        {
          "internalType": "int24",
          "name": "tick",
          "type": "int24"
        }
      ],
      "name": "afterInitialize",
      "outputs": [
        {
          "internalType": "bytes4",
          "name": "",
          "type": "bytes4"
        }
      ],
      "stateMutability": "nonpayable",
      "type": "function"
    },
    {
      "inputs": [
        {
          "internalType": "address",
          "name": "sender",
          "type": "address"
        },
        {
          "components": [
            {
              "internalType": "Currency",
              "name": "currency0",
              "type": "address"
            },
            {
              "internalType": "Currency",
              "name": "currency1",
              "type": "address"
            },
            {
              "internalType": "uint24",
              "name": "fee",
              "type": "uint24"
            },
            {
              "internalType": "int24",
              "name": "tickSpacing",
              "type": "int24"
            },
            {
              "internalType": "contract IHooks",
              "name": "hooks",
              "type": "address"
            }
          ],
          "internalType": "struct PoolKey",
          "name": "key",
          "type": "tuple"
        },
        {
          "components": [
            {
              "internalType": "int24",
              "name": "tickLower",
              "type": "int24"
            },
            {
              "internalType": "int24",
              "name": "tickUpper",
              "type": "int24"
            },
            {
              "internalType": "int256",
              "name": "liquidityDelta",
              "type": "int256"
            },
            {
              "internalType": "bytes32",
              "name": "salt",
              "type": "bytes32"
            }
          ],
          "internalType": "struct ModifyLiquidityParams",
          "name": "params",
          "type": "tuple"
        },
        {
          "internalType": "BalanceDelta",
          "name": "delta",
          "type": "int256"
        },
        {
          "internalType": "BalanceDelta",
          "name": "feesAccrued",
          "type": "int256"
        },
        {
          "internalType": "bytes",
          "name": "hookData",
          "type": "bytes"
        }
      ],
      "name": "afterRemoveLiquidity",
      "outputs": [
        {
          "internalType": "bytes4",
          "name": "",
          "type": "bytes4"
        },
        {
          "internalType": "BalanceDelta",
          "name": "",
          "type": "int256"
        }
      ],
      "stateMutability": "nonpayable",
      "type": "function"
    },
    {
      "inputs": [
        {
          "internalType": "address",
          "name": "sender",
          "type": "address"
        },
        {
          "components": [
            {
              "internalType": "Currency",
              "name": "currency0",
              "type": "address"
            },
            {
              "internalType": "Currency",
              "name": "currency1",
              "type": "address"
            },
            {
              "internalType": "uint24",
              "name": "fee",
              "type": "uint24"
            },
            {
              "internalType": "int24",
              "name": "tickSpacing",
              "type": "int24"
            },
            {
              "internalType": "contract IHooks",
              "name": "hooks",
              "type": "address"
            }
          ],
          "internalType": "struct PoolKey",
          "name": "key",
          "type": "tuple"
        },
        {
          "components": [
            {
              "internalType": "bool",
              "name": "zeroForOne",
              "type": "bool"
            },
            {
              "internalType": "int256",
              "name": "amountSpecified",
              "type": "int256"
            },
            {
              "internalType": "uint160",
              "name": "sqrtPriceLimitX96",
              "type": "uint160"
            }
          ],
          "internalType": "struct SwapParams",
          "name": "params",
          "type": "tuple"
        },
        {
          "internalType": "BalanceDelta",
          "name": "delta",
          "type": "int256"
        },
        {
          "internalType": "bytes",
          "name": "hookData",
          "type": "bytes"
        }
      ],
      "name": "afterSwap",
      "outputs": [
        {
          "internalType": "bytes4",
          "name": "",
          "type": "bytes4"
        },
        {
          "internalType": "int128",
          "name": "",
          "type": "int128"
        }
      ],
      "stateMutability": "nonpayable",
      "type": "function"
    },
    {
      "inputs": [],
      "name": "aiAgent",
      "outputs": [
        {
          "internalType": "address",
          "name": "",
          "type": "address"
        }
      ],
      "stateMutability": "view",
      "type": "function"
    },
    {
      "inputs": [],
      "name": "baseFee",
      "outputs": [
        {
          "internalType": "uint24",
          "name": "",
          "type": "uint24"
        }
      ],
      "stateMutability": "view",
      "type": "function"
    },
    {
      "inputs": [
        {
          "internalType": "address",
          "name": "sender",
          "type": "address"
        },
        {
          "components": [
            {
              "internalType": "Currency",
              "name": "currency0",
              "type": "address"
            },
            {
              "internalType": "Currency",
              "name": "currency1",
              "type": "address"
            },
            {
              "internalType": "uint24",
              "name": "fee",
              "type": "uint24"
            },
            {
              "internalType": "int24",
              "name": "tickSpacing",
              "type": "int24"
            },
            {
              "internalType": "contract IHooks",
              "name": "hooks",
              "type": "address"
            }
          ],
          "internalType": "struct PoolKey",
          "name": "key",
          "type": "tuple"
        },
        {
          "components": [
            {
              "internalType": "int24",
              "name": "tickLower",
              "type": "int24"
            },
            {
              "internalType": "int24",
              "name": "tickUpper",
              "type": "int24"
            },
            {
              "internalType": "int256",
              "name": "liquidityDelta",
              "type": "int256"
            },
            {
              "internalType": "bytes32",
              "name": "salt",
              "type": "bytes32"
            }
          ],
          "internalType": "struct ModifyLiquidityParams",
          "name": "params",
          "type": "tuple"
        },
        {
          "internalType": "bytes",
          "name": "hookData",
          "type": "bytes"
        }
      ],
      "name": "beforeAddLiquidity",
      "outputs": [
        {
          "internalType": "bytes4",
          "name": "",
          "type": "bytes4"
        }
      ],
      "stateMutability": "nonpayable",
      "type": "function"
    },
    {
      "inputs": [
        {
          "internalType": "address",
          "name": "sender",
          "type": "address"
        },
        {
          "components": [
            {
              "internalType": "Currency",
              "name": "currency0",
              "type": "address"
            },
            {
              "internalType": "Currency",
              "name": "currency1",
              "type": "address"
            },
            {
              "internalType": "uint24",
              "name": "fee",
              "type": "uint24"
            },
            {
              "internalType": "int24",
              "name": "tickSpacing",
              "type": "int24"
            },
            {
              "internalType": "contract IHooks",
              "name": "hooks",
              "type": "address"
            }
          ],
          "internalType": "struct PoolKey",
          "name": "key",
          "type": "tuple"
        },
        {
          "internalType": "uint256",
          "name": "amount0",
          "type": "uint256"
        },
        {
          "internalType": "uint256",
          "name": "amount1",
          "type": "uint256"
        },
        {
          "internalType": "bytes",
          "name": "hookData",
          "type": "bytes"
        }
      ],
      "name": "beforeDonate",
      "outputs": [
        {
          "internalType": "bytes4",
          "name": "",
          "type": "bytes4"
        }
      ],
      "stateMutability": "nonpayable",
      "type": "function"
    },
    {
      "inputs": [
        {
          "internalType": "address",
          "name": "sender",
          "type": "address"
        },
        {
          "components": [
            {
              "internalType": "Currency",
              "name": "currency0",
              "type": "address"
            },
            {
              "internalType": "Currency",
              "name": "currency1",
              "type": "address"
            },
            {
              "internalType": "uint24",
              "name": "fee",
              "type": "uint24"
            },
            {
              "internalType": "int24",
              "name": "tickSpacing",
              "type": "int24"
            },
            {
              "internalType": "contract IHooks",
              "name": "hooks",
              "type": "address"
            }
          ],
          "internalType": "struct PoolKey",
          "name": "key",
          "type": "tuple"
        },
        {
          "internalType": "uint160",
          "name": "sqrtPriceX96",
          "type": "uint160"
        }
      ],
      "name": "beforeInitialize",
      "outputs": [
        {
          "internalType": "bytes4",
          "name": "",
          "type": "bytes4"
        }
      ],
      "stateMutability": "nonpayable",
      "type": "function"
    },
    {
      "inputs": [
        {
          "internalType": "address",
          "name": "sender",
          "type": "address"
        },
        {
          "components": [
            {
              "internalType": "Currency",
              "name": "currency0",
              "type": "address"
            },
            {
              "internalType": "Currency",
              "name": "currency1",
              "type": "address"
            },
            {
              "internalType": "uint24",
              "name": "fee",
              "type": "uint24"
            },
            {
              "internalType": "int24",
              "name": "tickSpacing",
              "type": "int24"
            },
            {
              "internalType": "contract IHooks",
              "name": "hooks",
              "type": "address"
            }
          ],
          "internalType": "struct PoolKey",
          "name": "key",
          "type": "tuple"
        },
        {
          "components": [
            {
              "internalType": "int24",
              "name": "tickLower",
              "type": "int24"
            },
            {
              "internalType": "int24",
              "name": "tickUpper",
              "type": "int24"
            },
            {
              "internalType": "int256",
              "name": "liquidityDelta",
              "type": "int256"
            },
            {
              "internalType": "bytes32",
              "name": "salt",
              "type": "bytes32"
            }
          ],
          "internalType": "struct ModifyLiquidityParams",
          "name": "params",
          "type": "tuple"
        },
        {
          "internalType": "bytes",
          "name": "hookData",
          "type": "bytes"
        }
      ],
      "name": "beforeRemoveLiquidity",
      "outputs": [
        {
          "internalType": "bytes4",
          "name": "",
          "type": "bytes4"
        }
      ],
      "stateMutability": "nonpayable",
      "type": "function"
    },
    {
      "inputs": [
        {
          "internalType": "address",
          "name": "sender",
          "type": "address"
        },
        {
          "components": [
            {
              "internalType": "Currency",
              "name": "currency0",
              "type": "address"
            },
            {
              "internalType": "Currency",
              "name": "currency1",
              "type": "address"
            },
            {
              "internalType": "uint24",
              "name": "fee",
              "type": "uint24"
            },
            {
              "internalType": "int24",
              "name": "tickSpacing",
              "type": "int24"
            },
            {
              "internalType": "contract IHooks",
              "name": "hooks",
              "type": "address"
            }
          ],
          "internalType": "struct PoolKey",
          "name": "key",
          "type": "tuple"
        },
        {
          "components": [
            {
              "internalType": "bool",
              "name": "zeroForOne",
              "type": "bool"
            },
            {
              "internalType": "int256",
              "name": "amountSpecified",
              "type": "int256"
            },
            {
              "internalType": "uint160",
              "name": "sqrtPriceLimitX96",
              "type": "uint160"
            }
          ],
          "internalType": "struct SwapParams",
          "name": "params",
          "type": "tuple"
        },
        {
          "internalType": "bytes",
          "name": "hookData",
          "type": "bytes"
        }
      ],
      "name": "beforeSwap",
      "outputs": [
        {
          "internalType": "bytes4",
          "name": "",
          "type": "bytes4"
        },
        {
          "internalType": "BeforeSwapDelta",
          "name": "",
          "type": "int256"
        },
        {
          "internalType": "uint24",
          "name": "",
          "type": "uint24"
        }
      ],
      "stateMutability": "nonpayable",
      "type": "function"
    },
    {
      "inputs": [
        {
          "components": [
            {
              "internalType": "Currency",
              "name": "currency0",
              "type": "address"
            },
            {
              "internalType": "Currency",
              "name": "currency1",
              "type": "address"
            },
            {
              "internalType": "uint24",
              "name": "fee",
              "type": "uint24"
            },
            {
              "internalType": "int24",
              "name": "tickSpacing",
              "type": "int24"
            },
            {
              "internalType": "contract IHooks",
              "name": "hooks",
              "type": "address"
            }
          ],
          "internalType": "struct PoolKey",
          "name": "key",
          "type": "tuple"
        },
        {
          "internalType": "int256",
          "name": "amountToRebalance",
          "type": "int256"
        }
      ],
      "name": "executeAIRebalance",
      "outputs": [],
      "stateMutability": "nonpayable",
      "type": "function"
    },
    {
      "inputs": [],
      "name": "getHookPermissions",
      "outputs": [
        {
          "components": [
            {
              "internalType": "bool",
              "name": "beforeInitialize",
              "type": "bool"
            },
            {
              "internalType": "bool",
              "name": "afterInitialize",
              "type": "bool"
            },
            {
              "internalType": "bool",
              "name": "beforeAddLiquidity",
              "type": "bool"
            },
            {
              "internalType": "bool",
              "name": "afterAddLiquidity",
              "type": "bool"
            },
            {
              "internalType": "bool",
              "name": "beforeRemoveLiquidity",
              "type": "bool"
            },
            {
              "internalType": "bool",
              "name": "afterRemoveLiquidity",
              "type": "bool"
            },
            {
              "internalType": "bool",
              "name": "beforeSwap",
              "type": "bool"
            },
            {
              "internalType": "bool",
              "name": "afterSwap",
              "type": "bool"
            },
            {
              "internalType": "bool",
              "name": "beforeDonate",
              "type": "bool"
            },
            {
              "internalType": "bool",
              "name": "afterDonate",
              "type": "bool"
            },
            {
              "internalType": "bool",
              "name": "beforeSwapReturnDelta",
              "type": "bool"
            },
            {
              "internalType": "bool",
              "name": "afterSwapReturnDelta",
              "type": "bool"
            },
            {
              "internalType": "bool",
              "name": "afterAddLiquidityReturnDelta",
              "type": "bool"
            },
            {
              "internalType": "bool",
              "name": "afterRemoveLiquidityReturnDelta",
              "type": "bool"
            }
          ],
          "internalType": "struct Hooks.Permissions",
          "name": "",
          "type": "tuple"
        }
      ],
      "stateMutability": "pure",
      "type": "function"
    },
    {
      "inputs": [
        {
          "internalType": "address",
          "name": "",
          "type": "address"
        }
      ],
      "name": "isVIP",
      "outputs": [
        {
          "internalType": "bool",
          "name": "",
          "type": "bool"
        }
      ],
      "stateMutability": "view",
      "type": "function"
    },
    {
      "inputs": [],
      "name": "lastRebalanceTime",
      "outputs": [
        {
          "internalType": "uint256",
          "name": "",
          "type": "uint256"
        }
      ],
      "stateMutability": "view",
      "type": "function"
    },
    {
      "inputs": [],
      "name": "poolManager",
      "outputs": [
        {
          "internalType": "contract IPoolManager",
          "name": "",
          "type": "address"
        }
      ],
      "stateMutability": "view",
      "type": "function"
    },
    {
      "inputs": [
        {
          "internalType": "address",
          "name": "user",
          "type": "address"
        },
        {
          "internalType": "bool",
          "name": "status",
          "type": "bool"
        }
      ],
      "name": "setVIPStatus",
      "outputs": [],
      "stateMutability": "nonpayable",
      "type": "function"
    },
    {
      "inputs": [
        {
          "components": [
            {
              "internalType": "Currency",
              "name": "currency0",
              "type": "address"
            },
            {
              "internalType": "Currency",
              "name": "currency1",
              "type": "address"
            },
            {
              "internalType": "uint24",
              "name": "fee",
              "type": "uint24"
            },
            {
              "internalType": "int24",
              "name": "tickSpacing",
              "type": "int24"
            },
            {
              "internalType": "contract IHooks",
              "name": "hooks",
              "type": "address"
            }
          ],
          "internalType": "struct PoolKey",
          "name": "key",
          "type": "tuple"
        },
        {
          "internalType": "uint256",
          "name": "newVol",
          "type": "uint256"
        }
      ],
      "name": "updateVolatility",
      "outputs": [],
      "stateMutability": "nonpayable",
      "type": "function"
    },
    {
      "inputs": [
        {
          "internalType": "PoolId",
          "name": "",
          "type": "bytes32"
        }
      ],
      "name": "volatilityIndex",
      "outputs": [
        {
          "internalType": "uint256",
          "name": "",
          "type": "uint256"
        }
      ],
      "stateMutability": "view",
      "type": "function"
    }
  ],
  "bytecode": "0x60a034620002d85762000e8a90601f38839003908101601f19168201906001600160401b03821183831017620002dd5780839160409586948552833981010312620002d8578051906001600160a01b03908183168303620002d85760200151908116809103620002d857829160805262000078620002f3565b60009081815281602082015281848201528160608201528160808201528160a08201528160c08201528160e082015281610100918183820152610120828183015282610140818185015281610160818187015281610180938185890152816101a08099015281620000e8620002f3565b978189528160208a015260019e8f80918b01528260608b01528260808b01528260a08b015260c08a01528160e08a0152818c8a0152880152860152840152820152015261200030161590811591620002c9575b8115620002b7575b8115620002a8575b811562000299575b81156200028c575b5080156200027c575b801562000270575b801562000263575b801562000256575b801562000249575b80156200023c575b80156200022f575b801562000223575b6200021057506003805462ffffff1916610bb817905581546001600160a01b03191617905551610b759081620003158239608051818181610154015281816101d6015281816102290152818161045e0152818161056e015281816106180152818161071801528181610897015261091a0152f35b630732d7b560e51b815230600452602490fd5b5082301615156200019c565b5060023016151562000194565b506004301615156200018c565b5060083016151562000184565b506010301615156200017c565b5060203016151562000174565b5083301615156200016c565b5060803016151583141562000164565b905030161515386200015b565b30610200161515915062000153565b3061040016151591506200014b565b30610800161515851415915062000143565b3061100016151591506200013b565b600080fd5b634e487b7160e01b600052604160045260246000fd5b604051906101c082016001600160401b03811183821017620002dd5760405256fe60808060405260048036101561001457600080fd5b60003560e01c91826321d0ee701461090757508163259982e5146108795781633340a4331461082b578163575e24b4146106b857816367463fdd146106785781636c2bbe7e1461055b5781636ef25c3a146106555781636fe7e6eb146105da57816393989711146105b15781639f063efc1461055b578163a2b732b5146104c4578163a6d5b7321461049b578163b47b2fb114610407578163b6a8b0fa14610141578163c4e833ce14610276578163d9ca21d514610258578163dc4c90d314610213578163dc98354e146101a5578163e1b4af6914610141575063f4201c3c146100fd57600080fd5b3461013c57602036600319011261013c576001600160a01b0361011e610968565b166000526000602052602060ff604060002054166040519015158152f35b600080fd5b3461013c5761014f36610a90565b5050507f00000000000000000000000000000000000000000000000000000000000000006001600160a01b03163303925061019691505057604051630a85dc2960e01b8152fd5b60405163570c108560e11b8152fd5b3461013c5760e036600319011261013c576101be610968565b5060a036602319011261013c576101d3610a7a565b507f00000000000000000000000000000000000000000000000000000000000000006001600160a01b0316330361019657604051630a85dc2960e01b8152fd5b3461013c57600036600319011261013c576040517f00000000000000000000000000000000000000000000000000000000000000006001600160a01b03168152602090f35b3461013c57600036600319011261013c576020600254604051908152f35b3461013c57600036600319011261013c5760006101a0610294610ae8565b8281528260208201528260408201528260608201528260808201528260a08201528260c08201528260e0820152826101008201528261012082015282610140820152826101608201528261018082015201526101c06102f1610ae8565b6000815260006020820152600160408201526000606082015260006080820152600060a0820152600160c0820152600060e08201526000610100820152600061012082015260006101408201526000610160820152600061018082015260006101a08201526101a0604051916000835260208101511515602084015260408101511515604084015260608101511515606084015260808101511515608084015260a0810151151560a084015260c0810151151560c084015260e0810151151560e084015261010081015115156101008401526101208101511515610120840152610140810151151561014084015261016081015115156101608401526101808101511515610180840152015115156101a0820152f35b3461013c5761016036600319011261013c57610421610968565b5060a036602319011261013c5760603660c319011261013c576101443567ffffffffffffffff811161013c5761045a903690830161097e565b50507f00000000000000000000000000000000000000000000000000000000000000006001600160a01b0316330361019657604051630a85dc2960e01b8152fd5b3461013c57600036600319011261013c576001546040516001600160a01b039091168152602090f35b3461013c57366003190160c0811261013c5760a01361013c576104e5610b1f565b6001600160a01b03908235828116810361013c578152602435828116810361013c57602082015260443562ffffff8116810361013c5760408201526064358060020b810361013c576060820152608435918216820361013c5760a09160808201522060005260205260a435604060002055600080f35b3461013c5761056936610a10565b5050507f00000000000000000000000000000000000000000000000000000000000000006001600160a01b0316330393506101969250505057604051630a85dc2960e01b8152fd5b3461013c57602036600319011261013c5780356000526020526020604060002054604051908152f35b3461013c5761010036600319011261013c576105f4610968565b5060a036602319011261013c57610609610a7a565b5060e4358060020b0361013c577f00000000000000000000000000000000000000000000000000000000000000006001600160a01b0316330361019657604051630a85dc2960e01b8152fd5b3461013c57600036600319011261013c57602062ffffff60035416604051908152f35b3461013c57366003190160c0811261013c5760a01361013c576001546001600160a01b031633036106a95742600255005b604051631118a5c160e01b8152fd5b3461013c5761014036600319011261013c576106d2610968565b5060a036602319011261013c5760603660c319011261013c576101243567ffffffffffffffff811161013c5761070b903690830161097e565b506001600160a01b0390507f00000000000000000000000000000000000000000000000000000000000000008116330361081b57610747610b1f565b90602435818116810361013c578252604435818116810361013c57602083015262ffffff91606435838116810361013c5760408201526084358060020b810361013c57606082015260a435918216820361013c5760a09160808201522060005281602052604060002054816003541690600a810290808204600a149015171561080657821601116107f15760606040516315d7892d60e21b81526000602082015260006040820152f35b601190634e487b7160e01b6000525260246000fd5b601184634e487b7160e01b6000525260246000fd5b5060405163570c108560e11b8152fd5b3461013c57604036600319011261013c57610844610968565b6024359081151580920361013c5760018060a01b0316600052600060205260406000209060ff80198354169116179055600080f35b3461013c57610887366109ac565b506001600160a01b0393925050507f0000000000000000000000000000000000000000000000000000000000000000821633036108f65716600052600060205260ff60406000205416156108e75760405163259982e560e01b8152602090f35b604051631fcdf12d60e21b8152fd5b60405163570c108560e11b81528390fd5b3461013c57610915366109ac565b5050507f00000000000000000000000000000000000000000000000000000000000000006001600160a01b03163303915061095c90505750604051630a85dc2960e01b8152fd5b63570c108560e11b8152fd5b600435906001600160a01b038216820361013c57565b9181601f8401121561013c5782359167ffffffffffffffff831161013c576020838186019501011161013c57565b9061016060031983011261013c576004356001600160a01b038116810361013c579160a060231982011261013c57602491608060c31983011261013c5760c491610144359067ffffffffffffffff821161013c57610a0c9160040161097e565b9091565b906101a060031983011261013c576004356001600160a01b038116810361013c579160a060231982011261013c57602491608060c31983011261013c5760c49161014435916101643591610184359067ffffffffffffffff821161013c57610a0c9160040161097e565b60c435906001600160a01b038216820361013c57565b61012060031982011261013c576004356001600160a01b038116810361013c579160a060231983011261013c5760249160c4359160e43591610104359067ffffffffffffffff821161013c57610a0c9160040161097e565b604051906101c0820182811067ffffffffffffffff821117610b0957604052565b634e487b7160e01b600052604160045260246000fd5b6040519060a0820182811067ffffffffffffffff821117610b095760405256fea264697066735822122081aa7b98da8b37b012fcb9d89bc0f633b5e5290a3f2ee2e5b4067c130f15bb7864736f6c63430008180033",
  "linkReferences": {},
  "deployedLinkReferences": {}
}